:020000040800F2
:10000000000B002005010008213B00089D2C000882
:10001000D5330008A3030008B54100080000000024
:10002000000000000000000000000000FD3B000890
:10003000B90D000800000000233B0008E53D000862
:100040001F0100081F0100081F0100081F01000810
:100050001F0100081F0100081F0100081F01000800
:100060001F0100081F0100081F0100081F010008F0
:100070001F0100081F0100081F0100081F010008E0
:100080001F0100081F0100081F0100081F010008D0
:10009000A94100081F0100081F0100081F010008F6
:1000A0001F0100081F0100081F0100081F010008B0
:1000B0001F010008493E00081F0100081F01000839
:1000C0001F0100081F0100081F0100081F01000890
:1000D0001F0100081F0100081F0100081F01000880
:1000E0001F0100081F0100081F010008DFF810D0E1
:1000F00000F036F90048004789460008AFF3008059
:10010000000B00200648804706480047FEE7FEE750
:10011000FEE7FEE7FEE7FEE7FEE7FEE7FEE7FEE7B7
:10012000453E0008ED000008202A04DB203A21FAB1
:1001300002F00021704721FA02F3D040C2F1200200
:100140009140084319467047D2B201E000F8012BF4
:10015000491EFBD270470022F6E710B513460A4647
:1001600004461946FFF7F0FF204610BD80EA010261
:1001700010B502F00043400022D04A001FD0010E0B
:1001800001EB1261C0F35600C2F3560240F40000C6
:1001900042F40002A0FB022000047F39140400D0C6
:1001A000401C50EA124001D44000491EC2B20C0665
:1001B00004EBD010401C4008802A02D003E000204D
:1001C00010BD20F00100002900DA0020184310BD06
:1001D00030B480EA010202F0004530F0004221F024
:1001E000004013D090B1C30DD40DC2F31601C0F37B
:1001F0001600E41A41F4000140F400027D349142FB
:1002000001D3641C00E04900002C02DA30BC00205D
:1002100070474FF400000023914201D3891A034331
:1002200040084FEA4101F7D151B1914202D14FF05C
:10023000004105E002D24FF0010101E06FF0010141
:1002400003EBC450284430BC00F053B8C10F80EA1F
:10025000E0700844CA079623002100F053B800F06C
:10026000004220F00040C10DC0F3160040F4000031
:100270007F2901DA00207047962903DCC1F196013D
:10028000C84001E096398840002AF4D040427047C7
:100290002DE9F05F0546002092469B4688460646BB
:1002A000814640241BE02846414647462246FFF748
:1002B0003BFF53465A46C01A914110D31146184687
:1002C000224600F05FF82D1A67EB01084F462246E0
:1002D0000120002100F056F817EB00094E41201EC6
:1002E000A4F10104DFDC484631462A464346BDE816
:1002F000F09F0029A8BF7047401C490008BF20F0AC
:100300000100704710B4B0FA80FC00FA0CF050EA1B
:10031000010404BF10BC704749B1CCF1200421FA9C
:1003200004F411FA0CF118BF012121430843A3EB97
:100330000C01CB1D4FEA00614FEA102042BF0020A4
:1003400010BC704700EBC35010440029A4BF10BC80
:100350007047401C490008BF20F0010010BC7047E6
:10036000064C074D06E0E06840F0010394E8070002
:1003700098471034AC42F6D3FFF7BCFECC4E0008D1
:10038000EC4E0008202A04DB203A00FA02F100209B
:1003900070479140C2F1200320FA03F319439040C3
:1003A0007047FEE700B58BB0002001210390049058
:1003B000CDE90601CDE9081005900090019002906A
:1003C0006946044800F034FE002801D000F092FD98
:1003D0000BB000BD5000002010B5FFF7E3FF084848
:1003E00001F068F908B100F085FD0221044800F031
:1003F0000DFE002803D0BDE8104000F07BBD10BD0D
:10040000500000202DE9F047544C00254FF4804760
:1004100004EB45063A46B6F8C411708E00F086FC2F
:100420006D1C7086C92DF3D3B4F8C011608E3E46A2
:100430003A4600F0B6FC01254FF00008002803D032
:1004400005DD84F8565304E06570BDE8F08784F854
:1004500056834FF001034FF0020700BF04EB430047
:100460003246018E408E00F09CFC002801DB0146E4
:1004700000E04142792901DD677010E0002801DBCE
:10048000014600E041422829F6DB002806D000BFE3
:1004900094F8560301DD08B103E010B165706360A4
:1004A000D3E703F10103C82BD8D3002510F0FF0FC9
:1004B0004FF0030643F6FF792B4624D0C821581C81
:1004C00000F069FC04EB4000C821478E184600F09C
:1004D00062FC04EB4000408E87420DD51846C821CF
:1004E0006D1CC4F8583300F056FC04EB4000418EFC
:1004F000A9EB0100C4F85C035B1CC82BDED3012D03
:1005000024D06670A1E7C821581C00F044FC04EB1D
:100510004000C821478E184600F03DFC04EB400027
:10052000408E381A00280DDDC821581C6D1CC4F8F7
:10053000583300F030FC04EB4000418EA9EB010081
:10054000C4F85C035B1CC82BDDD3D8E784F80180BA
:10055000BDE8F04702A003F02FBE0000FC01002020
:100560000D0A656E636F6465206E6F206572726F31
:10057000720D0A000648002101704170416001724D
:10058000C160C0F85813C0F85C13C0F8601370471E
:10059000FC0100202DE9F05F534C544A204600F145
:1005A0001203018A94F808C000EB4101C0680025DD
:1005B0001288471C461E4FF448494FF4C83A4FF47E
:1005C000804BBCF1070F13D2DFE80CF00414214973
:1005D00055608700217800290AD04FF47A7102F023
:1005E000F3FAC4F80C9025820120207265706560D2
:1005F000BDE8F09F801C4FF47A71E06002F0E4FAED
:10060000E0685045F4D10220C4F80C900DE010F0E1
:10061000FF0F0CD0C4F80C704FF47A71E06802F050
:10062000D3FAE0685045E3D903202072E0E74A821C
:10063000208A401C80B220821028EDD15A46102119
:10064000184600F085FBE168A1F54841090A04EB72
:10065000410148862582E068401CE060DCE73846BE
:100660004FF47A71E76002F0AFFAE068B0F5D23F7C
:10067000BED10420D9E730464FF47A71E66002F02B
:10068000A3FAE0685045B3D10520CEE710F0FF0F84
:100690000AD0E6604FF47A71E06802F095FAE068FB
:1006A0004845A5D20620C0E74A82208A401C80B275
:1006B00020821028EED15A461021184600F048FB3F
:1006C000E168A1F54841090A04EB4101A1F8C40120
:1006D0002582E068401EE060DCE7BDE8F05F0021B5
:1006E000084602F071BA0000FC0100202A00002038
:1006F0002DE9F84F944C207A06287DD102F0B6FA05
:10070000FFF780FE60784FF00008002875D18F4811
:10071000C4F8608303F016FB8C4803F005FB94F8E3
:100720005603D4F858534FF480494FF4484B0028EF
:100730006DD172E0C821284600F02DFB04EB40008B
:10074000C821438E681C00F026FB04EB40004A469B
:10075000408E194600F025FB0646D4F85803A842FF
:100760001AD1D4F85C7314E0380290FBF6F000EB79
:100770000520594600F00FFBADF800000122694644
:10078000724803F00DFBD4F86003401C7F1CC4F8D2
:100790006003B742E8DB39E0C830A8424FF00007F9
:1007A00015D031E0380290FBF6F000EB05205946F9
:1007B00000F0F1FAADF8000001226946634803F049
:1007C000EFFAD4F86003401C7F1CC4F86003D4F82F
:1007D0005C03B842E6DC19E0380290FBF6F000EB6F
:1007E0000520594600F0D7FAADF80000012269460D
:1007F000564803F0D5FA01E0A0E094E0D4F8600395
:10080000401C7F1CC4F86003B742E5DB6D1CD4F8C4
:100810005803C930A8428DDC79E0C83572E0C821A0
:10082000681C00F0B8FA04EB4000C821438E28464B
:1008300000F0B1FA04EB40004A46408E194600F041
:10084000B0FA0646D4F8580300F1C801A9421DD1F8
:10085000280200F5807AD4F85C7314E0380290FB2B
:10086000F6F1AAEB0100594600F095FAADF8000048
:1008700001226946354803F093FAD4F86003401C1E
:100880007F1CC4F86003B742E8DB3AE0A8424FEAB5
:10089000052000F580704FF00007824615D02EE04D
:1008A000380290FBF6F1AAEB0100594600F073FA0A
:1008B000ADF8000001226946244803F071FAD4F82B
:1008C0006003401C7F1CC4F86003D4F85C03B8428A
:1008D000E6DC16E0380290FBF6F1AAEB010059467F
:1008E00000F059FAADF8000001226946174803F0FC
:1008F00057FAD4F86003401C7F1CC4F86003B74269
:10090000E8DB6D1ED4F85803401EA84287DB0F4871
:1009100003F03EFAD4F86003484502D0042060702A
:1009200001E0607860B10A49084881F8048003F06A
:1009300009FA00BF84F8088084F80080BDE8F88FC9
:10094000034901200871F5E7FC0100201000002098
:100950002A000020074A011E134610659B6A02DD2B
:1009600003F5807302E001DAA3F580731846D364BF
:1009700002F02AB9D4050020104A00B5107810B949
:10098000C82000F035F8507810B9502000F024F855
:10099000907818B94FF4967000F036F8D07810B906
:1009A000FA2000F00DF80020D061506190611062D3
:1009B00050629062D0621063506300BD90050020C9
:1009C0000449B0F5806F02D80861012000E00020E2
:1009D000C8707047900500200449B0F5806F02D8B8
:1009E0008860012000E000204870704790050020DA
:1009F0000449B0F5806F02D84860012000E0002073
:100A000008707047900500200449B0F5806F02D847
:100A1000C860012000E00020887070479005002029
:100A2000F0B42A4A936AC41AA2F144004461D56919
:100A3000491BC9114FF448658161AC4202DC6D422B
:100A4000AC4200DA45614FF47A64A14202DC6442B0
:100A5000A14200DA8461446841694C4304628668BB
:100A6000C56A06FB0151C668856906FB0511CE11F2
:100A7000A1EBC611C0E90B16416A31444FF4FA16D6
:100A80004162B14202DC7642B14200DA466201695B
:100A900069438162456A2C44214489124FF4FA6407
:100AA0004163A14202DC6442A14200DA4463416B2B
:100AB0001165002902DD03F5807302E001DAA3F578
:100AC0008073D364F0BC184602F07EB8D4050020D1
:100AD0000D4A00B5107810B9052000F02FF85078B5
:100AE00010B91E2000F01EF8907810B9002000F018
:100AF0000DF80020106150619061D0611062506269
:100B00009062D06200BD0000600500200449B0F58D
:100B1000806F02D8C860012000E000208870704714
:100B2000600500200449B0F5806F02D8886001207C
:100B300000E0002048707047600500200449B0F5CF
:100B4000806F02D84860012000E0002008707047E4
:100B500060050020F0B4254901F174020C694C6174
:100B6000D369C01A4FF480130861984202DC5B42DB
:100B7000984200DA0B614D68086945438D618E68C3
:100B80004B6A06FB00339E12A3EB8623C1E90936AC
:100B9000CB6933444FF4FA16CB61B34202DC7642A0
:100BA000B34200DACE61CB68001B58430862CB69C0
:100BB0002B44184480124FF4FA63C862984202DC56
:100BC0005B42984200DACB620848C96A743011650A
:100BD000806A002902DD00F5807002E001DAA0F5EC
:100BE0008070D064F0BC01F0EFBF00006005002011
:100BF0008208034803681A6400688908C163704763
:100C0000D0000020F0B5274900230F464C697E68CC
:100C10003D69A0EB040CFF6844F62062BCF1000FB4
:100C20000FD01CDD002C0EDB354495FBF2F634446E
:100C300095FBF2F602FB1652C1E9042484421CDA49
:100C40002CE048612AE0E81990FBF2F52C1990FBA2
:100C5000F2F502FB1500C1E904041DD51EE0002CCD
:100C60000EDCAD1B95FBF2F6344495FBF2F602FB6D
:100C70001652C1E90424844210DCC1E904300DE0BD
:100C8000E81B90FBF2F52C4490FBF2F502FB1500FB
:100C9000C1E90404002C01DC0B614B6148698861E7
:100CA000F0BD00003806002030B5094C4FF47A65DD
:100CB000207810B9284600F027F8207A10B9284685
:100CC00000F010F8002020616061A06130BD0000DC
:100CD0003806002002490022C1E9042070470000C4
:100CE00038060020002800DA4042421E49F63F4301
:100CF00004499A4202D8C860012000E0002008722E
:100D00007047000038060020002800DA4042421EEA
:100D100049F63F4304499A4202D84860012000E066
:100D2000002008707047000038060020431A08446D
:100D30004FEA600000D55B42B3EB620F04DDB0EB1D
:100D4000620F02DBA0EB6200704700EB62007047AD
:100D5000F0B5078801253C46C2F1000E10E000BF47
:100D600030F81530A3EB070C1E46BCEB620F00DD1C
:100D7000B31ABCEB6E0F00DAB3186D1C1C44ADB295
:100D80008D42EDD394FBF1F0002800DA104490423C
:100D900000DD801AF0BD0844B0FBF1F201FB120047
:100DA0007047401AB0EB620F00DD801A5142B0EB81
:100DB000610F00DA104470477047000010B51AA0A8
:100DC00003F0FAF91DA003F0F7F9C82000F0A6FC23
:100DD00001F066FF02F004F9FFF7CCFB01F0CEFE54
:100DE00002F05CFD1A49642008601A49022008607C
:100DF000194801F06FFB19480068194C400708D4E6
:100E000018A003F0D9F9E00420611D490120087001
:100E100005E04FF4004020611AA003F0CDF9BDE8D1
:100E20001040FFF7D9BA00002D2D2D5374657020A6
:100E30004374726C2D2D2D0D0A0000002D2D2D2DCB
:100E40002D2D2D2D546573742D2D2D0D0A000000B0
:100E5000440000204800002018010020080C014038
:100E6000001001400D0A43616C6962726174696F20
:100E70006E2073746172742E2E2E0D0A0000000015
:100E8000FC0100200D0A20496E746F206D61696EAF
:100E9000206C6F6F700D0A0070B5FFF729FC124CC3
:100EA0002068124D00040CD40A2000F037FC2068A2
:100EB000000406D4286800F5FA20286020680004A1
:100EC000FCD50B4C206840070CD40A2000F026FC0F
:100ED0002068400706D42868A0F5FA20286020681A
:100EE0004007FCD570BD000008080140400000200C
:100EF000080C014072B6FEE706490020C8610648AA
:100F0000016941F004010161016941F040010161A1
:100F100070470000A801002000200240064A00217E
:100F2000D16106490A6942F002020A614861086912
:100F300040F0400008617047A801002000200240F6
:100F4000044B0022DA61044A136943F00103136180
:100F500001807047A80100200020024014480022B0
:100F6000C168CB06134904D5CA6942F00202CA61BE
:100F70001022C3685B0705D5CB6943F00103CB6141
:100F800042F00402C369DB0707D0CB6943F00403D6
:100F9000CB61C16921F00101C161A2F58071013904
:100FA00001D0C2607047C16921F00101C161704781
:100FB00000200240A801002070B5054600F04AFD5F
:100FC0000646114C09E0681C07D025B100F042FD2F
:100FD000801BA84201D9032070BDE068C007F2D190
:100FE000E068800601D52020E060E068C00605D4F6
:100FF000E069C00702D1E068400703D5FFF7AEFF04
:10100000012070BD002070BD0020024090F820201B
:10101000012A07D0022A05D0416A41F480214162A9
:1010200001207047006842690A434261002070470E
:1010300010B590F820300268012B07D0022B05D0A4
:10104000416A41F480214162012010BDD2F80002C2
:1010500040F00100C2F80002087D00F01F030120EB
:101060009840D2F81C328343C2F81C32CB69B3B922
:10107000D2F80C328343C2F80C328C894B6864F38B
:101080001F434C6902EBC404C4F840320C890B685E
:1010900064F31F434C6902EBC404C4F84432CB69C7
:1010A000012B16D1D2F80C320343C2F80C320C8853
:1010B0004B6864F31F434C6902EBC404C4F840322C
:1010C0000C89CB6864F31F434C6902EBC404C4F879
:1010D00044328B69002BD2F804320FD053EA00035C
:1010E000C2F804320B69002BD2F8143208D0034343
:1010F000C2F81432096A012904D008E08343EFE7FB
:101100008343F5E7D2F81C120143C2F81C12D2F84F
:10111000000220F00100C2F80002002010BD70475C
:1011200030B590F82040012C05D0022C03D0416A44
:1011300041F480215DE00468002955D02469A407AA
:1011400054D04FF4D874056804EB01142D5915F0F0
:101150000405956005682D594ED0ED085560056869
:101160002C5904F00204D4604FF4DA74056804EBDF
:1011700001142D5905F00F05156105682D59C5F3AA
:101180000725956105682C59240C54614FF4DC72D5
:10119000046802EB0112A4581C700468A458240AC5
:1011A0005C700468A458240C9C700468A258120E49
:1011B000DA704FF4DE72046802EB0112A4581C715D
:1011C0000468A458240A5C710468A458240C9C7117
:1011D0000468A258120EDA71006881B1016941F009
:1011E00020010161002030BDE468A8E7416A41F4B4
:1011F00000114162012030BD6D0D1560AFE7C1687F
:1012000041F02001C160EDE72DE9F05F054600687F
:1012100000244669D0F804908768D0F80CB0D0F864
:1012200010A0D0F81880F10748D0F90714D0012198
:101230008160B80703D5284600F069FA0CE078070A
:1012400002D54FF4006407E0380702D54FF480540C
:1012500002E0284600F05AFAF80516D529684FF43E
:1012600080708860B80503D5284600F052FA0CE07B
:10127000780502D544F4005407E0380502D544F45B
:10128000804402E0284600F043FAF80316D52968A6
:101290004FF480308860B80303D5284600F03BFA4D
:1012A0000CE0780302D544F4004407E0380302D58B
:1012B00044F4803402E0284600F02CFA300707D5C9
:1012C0005FEACB6004D52968102044F40074C8603C
:1012D00070074FF0080707D55FEA0B7004D5286840
:1012E000C760284600F066F9B00706D52868C068D0
:1012F000800702D0284600F05FF9700607D55FEA44
:10130000CA6004D52968102044F480640861B006DE
:1013100007D55FEA0A7004D528680761284600F0FF
:10132000C5F9F00606D528680069800702D028466E
:1013300000F0BDF9B00308D55FEAC96005D529689A
:1013400010204860284600F0B3F9F00307D55FEAA3
:10135000097004D528684760284600F0DDF930049C
:1013600046D55FEA497040D5F00504D55FEAC870FC
:1013700001D044F00104B00504D55FEA887001D5BE
:1013800044F00204700504D55FEA487001D544F0CA
:101390000404300529D518F0700F26D008F070002D
:1013A000402815D006DC102809D020280AD0302883
:1013B00016D10AE050280ED0602811D10EE044F07A
:1013C00008040DE044F010040AE044F0200407E0B3
:1013D00044F0400404E044F0800401E044F48074EC
:1013E0002868816921F070018161296804204860C2
:1013F000002C05D0686A204368622846FFF78FFEFC
:10140000BDE8F09F70B5040003D094F8200010B13F
:1014100004E0012070BD204600F082F820680168D9
:1014200041F00101016000F015FB0546052604E0CE
:1014300000F010FB401B0A2811D820684068C00744
:10144000F6D02068016821F00201016000F002FB83
:1014500005460BE000F0FEFA401B0A2806D9606A38
:1014600040F40030606284F82060D2E72068406871
:101470008007EFD4207E0128206801683DD021F04C
:1014800080010160607E01282068016838D021F069
:1014900040010160A07E01282068016833D021F05E
:1014A00020010160E07E0128206801682ED041F013
:1014B00010010160207F01282068016829D021F0F7
:1014C00008010160607F01282068016824D021F0B4
:1014D00004010160D4E902010843D4E90412114374
:1014E00008436168491E08432168C86100206062A2
:1014F000012084F82000002070BD41F08001C0E789
:1015000041F04001C5E741F02001CAE721F0100198
:10151000CFE741F00801D4E741F00401D9E700002A
:1015200010B586B0002100910191029103910068ED
:101530001C49884233D11C48C16941F00071C16126
:10154000C16901F000710491816941F00801816174
:101550008069164C00F0080004904FF480700090F1
:101560006946204600F080F9601500900220019045
:10157000032003906946204600F076F90C48416844
:1015800021F4C04141F0E06141F48041416000221A
:101590000121142000F0CAFA142000F0B9FA06B0B4
:1015A00010BD00000064004000100240000C01402B
:1015B00000000140704700001CB5006815498842D2
:1015C00026D16B46144A00211448FFF7A9FD0028D4
:1015D0001ED113A002F0F0FD0F48016816A002F022
:1015E000EBFD9DF800101BA002F0E6FD9DF8011038
:1015F0001DA002F0E1FD9DF8021020A002F0DCFD2C
:101600009DF8031022A002F0D7FD26A002F0D4FD21
:101610001CBD000000640040E001002050000020DC
:101620002D2D2D3E44617461205265636569657698
:1016300065210D0A0000000052784D6573736167E3
:10164000652E5374644964206973202523780D0A3C
:1016500000000000646174615B305D2069732030BC
:1016600078253032780D0A00646174615B315D2049
:101670006973203078253032780D0A006461746116
:101680005B325D206973203078253032780D0A0096
:10169000646174615B335D2069732030782530327A
:1016A000780D0A003C2D2D2D0D0A00007047704763
:1016B0007047000070B5044690F82000012804D05F
:1016C000606A40F40020606218E0022084F8200084
:1016D0002068016821F00101016000F0BBF90546B6
:1016E0000EE000BF00F0B6F9401B0A2808D9606A76
:1016F00040F400306062052084F82000012070BDB5
:1017000020684068C007EDD1606270BD70477047C7
:1017100070477047704770477047000070B50446C7
:1017200000F098F90546601C02D004480078044493
:1017300000F090F9401BA042FAD370BD00000020D9
:101740002DE9F047054626480F460126017E01296E
:101750000FD00121814601762868DFF888804CF29D
:101760005034022808D0A2462046FFF725FCA8B135
:1017700031E00220BDE8F0872046FFF71DFC08BBE2
:101780000120FFF7B9FB2046FFF716FCD8F8101030
:10179000064621F00401C8F810101CE04FF0FF309D
:1017A0003860AC6811E02046FFF7B8FB5046FFF701
:1017B00003FCD8F81010060021F00201C8F8101040
:1017C00001D03C6007E004F58064D5E9020100EB3C
:1017D0008120A042E7D8002189F818103046C9E7D7
:1017E000A8010020002002402DE9F05F07461C48B8
:1017F00088460024017E15461E46012909D0012194
:10180000814601764CF2503A5046FFF7D5FB18B1AD
:1018100022E00220BDE8F09F012F02D0022F00D06D
:101820000427D346DFF83CA0220128463146FEF7C4
:101830007BFC81B208EB4400FFF782FB5846FFF7C0
:10184000BBFBDAF8102022F00102CAF8102018B908
:10185000641CE4B2BC42E7D3002289F81820D9E71F
:10186000A8010020002002402DE9F84FDFF8B891D0
:10187000002409F1040A0AF1040B23460F270BF197
:10188000040EC9E00125A5402A40AA427DD1674E39
:10189000D1F804C0ACEB0608B44532D014DCBCF17E
:1018A000030F3AD009DCBCF1000F2AD0BCF1010FC4
:1018B0001CD0BCF1020F31D11DE0BCF1110F17D0CB
:1018C000BCF1120F2AD119E0B8F5881F19D006DC37
:1018D000B8F5803F15D0B8F5801F1FD111E0B8F5DD
:1018E000001F0ED0B8F5041F18D10AE0CB6815E030
:1018F000CB681B1D12E0CB6808330FE0CB680C33BC
:101900000CE08B682BB1012B4FF0080303D045612D
:1019100004E0042302E0056100E00023FF2A01D86F
:10192000064601E000F104064FEA840501D9A5F15D
:101930002005D6F8008007FA05FC28EA0C0803FA0F
:1019400005F548EA0508C6F800804D68ED0062D547
:10195000374DAE6946F00106AE61AD6924F003066D
:1019600005F001050095334D06EB050CDCF8085039
:10197000A607360F07FA06F825EA0805DFF8B8804B
:10198000404503D14FF0000817E044E0DFF8AC8099
:10199000404502D14FF001080FE0DFF8A480404538
:1019A00002D14FF0020808E0DFF89880404502D1EC
:1019B0004FF0030801E04FF0040808FA06F848EA7F
:1019C0000508CCF808804D68D9F80060ED034D4655
:1019D00001D5164300E096432E604D68DAF80060AA
:1019E000AD03554601D5164300E096432E604D6881
:1019F000DBF80060ED025D4601D5164300E096433A
:101A00002E604D68DEF80060AD02754601D51643C4
:101A100000E096432E60641C0D682A46E5407FF482
:101A200031AFBDE8F88F0000000401400000111044
:101A3000001002400000014000080140000C01407D
:101A400000100140001401400AB10161704709040F
:101A5000FBE700000148806870470000000000209C
:101A600002488168027811448160704700000020BC
:101A7000074810B5016841F010010160032000F033
:101A800075F80F2000F006F800F024F8002010BDD3
:101A90000020024070B50D4D04464FF47A7128784D
:101AA000B1FBF0F00A490968B1FBF0F000F07BFCF3
:101AB00048B9102C07D200222146501E00F036F8FB
:101AC00000206C6070BD012070BD0000000000208F
:101AD0000C0000200C4808B5816941F001018161CA
:101AE000816901F001010091C16941F08051C1613A
:101AF000C06900F0805000900448416821F0E06126
:101B000041F00071416008BD00100240000001403A
:101B1000002809DB00F01F020121914040098000EC
:101B200000F1E020C0F8001170470000F0B40E4B47
:101B30001B680C46C3F30223C3F10705042D00D92B
:101B40000425191D072901D2002300E0DB1E012610
:101B500006FA05F1491E214099409E40761E164026
:101B60003143F0BC02F038BB0CED00E0064900F058
:101B7000070208684FF6FF03184040EA0220034AB4
:101B800010430860704700000CED00E00000FA050B
:101B90002DE9F0470F46050061D0434E306800F054
:101BA0000700B84209D2306820F00700384330609F
:101BB000306800F00700B84251D128683B4C8107DB
:101BC00012D5400703D5606840F4E0606060287873
:101BD000000703D5606840F4605060606068A968E1
:101BE00020F0F000084360602878C00728D06868BB
:101BF000012810D02168022810D0890700292EDA88
:101C0000616821F0030101436160FFF723FF804613
:101C100041F288390DE021688903EFE78901EDE79A
:101C2000FFF718FFA0EB0801494502D90320BDE8E2
:101C3000F0876068696800F00C00B0EB810FEFD1AD
:101C4000306800F00700B8420BD9306820F0070078
:101C500038433060306800F00700B84201D00120FE
:101C6000E5E72878400705D56068E96820F4E0607A
:101C7000084360602878000706D56068296920F469
:101C8000605040EAC100606000F038F86168084ABE
:101C9000C1F30311515CC84006490860064800685A
:101CA000FFF7F8FE0020C2E70020024000100240CB
:101CB000B24600080C00002004000020044805493A
:101CC00000684968044AC1F30221515CC84070476A
:101CD0000C00002000100240C246000804480549DC
:101CE00000684968044AC1F3C221515CC84070478A
:101CF0000C00002000100240C246000813A185B06D
:101D00000FC98DE80F0015A0154A006804905168AE
:101D100001F00C00042804D0082804D0114805B0B4
:101D200070471148FBE7C1F38343C9031DF8030063
:101D300009D5516804AAC1F34041515C0A4A504395
:101D4000B0FBF1F0EBE709494843E8E7020304057B
:101D5000060708090A0B0C0D0E0F101001020000F7
:101D60000010024000127A00001BB70000093D007D
:101D70002DE9F84F040070D02078C04DC00749D03D
:101D80006868C0F38100012807D06868C0F381004B
:101D9000022809D16868C00306D52868800339D5B0
:101DA00060680028E7D035E06068B0F5803F0BD070
:101DB00010B1B0F5A02F11D0286820F48030286031
:101DC000286820F4802002E0286840F480302860F1
:101DD000606890B1FFF73EFE06460AE0286840F4CE
:101DE00080202860F0E700BFFFF734FE801B6428E6
:101DF00073D828688003F7D50CE0FFF72BFE064662
:101E000005E000BFFFF726FE801B6428F0D8286895
:101E10008003F7D420789A4E80074FF001094FF0E5
:101E2000000839D5686810F00C0F07D06868C0F357
:101E30008100022809D16868C00306D42868800799
:101E400014D52069012808D110E02069B0B1C6F886
:101E50000090FFF7FFFD074605E00AE1FFF7FAFDF6
:101E6000C01B0228C4D828688007F7D52868616994
:101E700020F0F80040EAC10028600DE0C6F80080BC
:101E8000FFF7E8FD074604E0FFF7E4FDC01B02286A
:101E900023D828688007F7D4207800072CD5794804
:101EA000A169D9B1C0F80090FFF7D4FD074604E05E
:101EB000FFF7D0FDC01B02280FD8686A8007F7D54E
:101EC00071484FF4FA510068B0FBF1F0009000BF88
:101ED0000098411E0091FAD20EE080E0C0F8008028
:101EE000FFF7B8FD074604E0FFF7B4FDC01B02286A
:101EF00075D8686A8007F7D42078400760D5E8690C
:101F00000027C00008D4E86940F08050E861E86923
:101F1000012700F0805000905C480168C90513D487
:101F20000168834641F480710160FFF793FD8246AA
:101F300006E000BFFFF78EFDA0EB0A0064284ED834
:101F4000DBF80000C005F5D5E06801280AD008B12B
:101F5000052813D0286A20F001002862286A20F0A2
:101F6000040002E0286A40F001002862E06841F2C3
:101F7000883B98B1FFF76EFD82460BE0286A40F07F
:101F800004002862EEE700BFFFF764FDA0EB0A0142
:101F900059455AD8286A8007F6D50CE0FFF75AFD54
:101FA000824605E0FFF756FDA0EB0A0159454CD8E3
:101FB000286A8007F6D41FB1E86920F08050E861F4
:101FC000E06988B36968C1F38101022944D002281D
:101FD000C6F8608004D0FFF73DFD044638E034E0E9
:101FE000FFF738FD074604E0FFF734FDC01B022869
:101FF0002BD828688001F7D4206AB0F5803F05D13E
:102000006868A16820F4003008436860D4E90801DA
:102010000843696821F4741108436860C6F8609049
:10202000FFF718FD044606E025E000BFFFF712FDAC
:10203000001B022809D828688001F7D51BE000BFE3
:10204000FFF708FD001B022802D90320BDE8F88F26
:1020500028688001F4D40EE00128F7D06868226A6D
:1020600000F48031914204D1616A00F4701088421A
:1020700001D00120EAE70020E8E70000001002405C
:1020800000004242800442420C00002000700040E8
:1020900070B5040009D0606A002540B12561656112
:1020A000A56294F8510040B10CE0012070BD606859
:1020B000B0F5827FF4D0E561F2E784F85050204615
:1020C00000F040F8022084F851002068016821F0F7
:1020D00040010160A088218900F4827001F404416C
:1020E0000843A18901F400610843217C01F0020149
:1020F0000843217D01F001010843218B01F40071A7
:102100000843217F01F03801084394F8201001F0C2
:1021100080010843218D01F40051084321680860C3
:10212000A069042101EA1040216848602068C16963
:1021300021F40061C1616565012084F8510000202F
:1021400070BD000030B585B0002400940194029465
:1021500003940068174988422AD11748816941F4DD
:1021600080518161816901F480510491816941F05C
:10217000080181618069114D00F008000490282059
:102180000090022001900320039069462846FFF743
:102190006BFB1020CDE90004694628460294FFF746
:1021A00063FB0748416841F0E06141F00101416093
:1021B00005B030BD0030014000100240000C01406D
:1021C000000001402DE9F84F044690F85000002728
:1021D0000A9E1D4692468B464FF0010901280ED0FB
:1021E000012084F85000FFF735FC804694F8510038
:1021F000616801280CD0B1F5827F07D102E002208E
:10220000BDE8F88FA16809B9042801D00227C2E00F
:10221000BBF1000F27D0BAF1000F24D01DB394F802
:102220005100042802D0052084F851000020606588
:10223000C4F838A0E587A587C4F830B0E586A58640
:102240002064606420680168490603D4016841F095
:1022500040010160E068B0F5006F606805D0E8B348
:10226000012D46D07FE0012795E008B1012D39D13D
:10227000206B21680088C860206B801C2063E08E82
:10228000401EE0862EE02068816889070FD5E18E28
:1022900069B1B9F1010F0AD1216B0988C160206BC6
:1022A000801C2063E08E401EE0864FF0000920680D
:1022B0008168C9070CD0E18F51B1C068A16B08805B
:1022C000A06B801CA063E08F401EE0874FF00109E7
:1022D000FFF7C0FBA0EB0800B04200E009E001D32B
:1022E000701C50D1E08E0028CDD1E08F0028CAD1DB
:1022F0003FE0206B216800780873206B401C20634E
:10230000E08E401EE0862EE02068816889070FD5A8
:10231000E18E69B1B9F1010F0AD1216B097801731E
:10232000206B401C2063E08E401EE0864FF00009C9
:1023300020688168C9070CD0E18F51B1C068A16BDA
:102340000870A06B401CA063E08F401EE0874FF038
:102350000109FFF77FFBA0EB0800B04202D3701C1D
:1023600001D010E07EB1E08E0028CDD1E08F0028B2
:10237000CAD142463146204601F0D4FB28B101279C
:102380002020606507E0032705E0A06818B92068F1
:10239000C16880680090012084F85100002084F812
:1023A000500038462CE710B5401EB0F1807F01D3B5
:1023B000012010BD4FF0E02460610F21601701F093
:1023C0000BFF0020A06107202061002010BD704796
:1023D0007047000070B590F83C20012A26D00124F7
:1023E00080F83C40022280F83D2003685A689D68CE
:1023F00022F070060A6832435A600D4B02689A4216
:1024000008D0B2F1804F05D00A4B9A4202D00A4B55
:102410009A4204D1496825F080031943916080F8FD
:102420003D40002180F83C10084670BD022070BD80
:10243000002C0140000400400008004010B50400DA
:1024400003D094F83D0010B107E0012010BD00203A
:1024500084F83C00204600F01FF8022084F83D007C
:10246000211D206801F0F6FC012084F8460084F864
:102470003E0084F83F0084F8400084F8410084F86E
:10248000420084F8430084F8440084F8450084F84E
:102490003D00002010BD000008B500680B498842CF
:1024A00012D10B48C16941F00201C161C06900222B
:1024B00000F00200009011461D20FFF737FBBDE839
:1024C00008401D20FFF724BB08BD000000040040A9
:1024D0000010024090F83D10012901D00120704702
:1024E000022180F83D100168CA6842F00102CA600A
:1024F00000680B49884208D0B0F1804F05D00949E7
:10250000884202D00849884204D1816801F007015D
:10251000062903D0016841F00101016000207047E5
:10252000002C0140000400400008004070B5044643
:1025300090F83C00012817D0012584F83C50022077
:1025400084F83D002068826822F0770222F47F42FE
:1025500082600868502830D00DDC20284DD005DC82
:1025600098B310283BD148E0022070BD302844D0F9
:10257000402834D139E0602828D0702806D0B0F542
:10258000805F2CD0B0F5005F29D10AE0CB68D1E99B
:102590000121206801F0A1FC2068816841F07701E9
:1025A00009E0CB68D1E90121206801F096FC2068A0
:1025B000816841F48041816011E0CA6849682068FF
:1025C00001F040FD5021206807E016E0CA68496824
:1025D000206801F048FD6021206801F088FC84F843
:1025E0003D50002084F83C0070BDCA6849682068EE
:1025F00001F028FD40212068EFE7226801461046DF
:10260000EBE7704770B50446006801694FF00005BC
:10261000C943890715D4C168C943890711D4E91E84
:10262000016101202077206880698007204602D060
:10263000FFF7E7FF04E000F0C9F8204600F06AF970
:10264000257720680169C943490717D4C168C94380
:10265000490713D46FF0040101610220207720683C
:10266000806910F4407F204602D0FFF7CAFF04E0E3
:1026700000F0ACF8204600F04DF92577206801699C
:10268000C943090716D4C168C943090712D46FF0BA
:1026900008010161042020772068C0698007204676
:1026A00002D0FFF7AEFF04E000F090F8204600F003
:1026B00031F9257720680169C943C90617D4C16873
:1026C000C943C90613D46FF01001016108202077B7
:1026D0002068C06910F4407F204602D0FFF791FFC8
:1026E00004E000F073F8204600F014F92577206824
:1026F0000169C943C90708D1C168C943C90704D1E1
:10270000891E0161204600F055F920680169C9431E
:10271000090609D4C168C943090605D46FF08001D0
:1027200001612046FFF753FE20680169C94349064D
:1027300009D4C168C943490605D46FF0400101615D
:10274000204600F04FF920680169C94389060BD47F
:10275000C168C943890607D46FF020010161204692
:10276000BDE87040FFF734BE70BD000000B585B015
:10277000002100910191029103910068B0F1804F16
:102780001BD10F48816941F0080181618069694668
:1027900000F0080004904FF4406000900220019087
:1027A00003900848FFF760F80748416821F440713A
:1027B00041F0E06141F40071416005B000BD0000EE
:1027C00000100240000C014000000140704770B54D
:1027D000044690F83C000D4601280AD0012084F8F8
:1027E0003C0042B1042A18D0082A2AD00C2A4DD124
:1027F00039E0022070BD206801F082FB2068816909
:1028000041F0080181612068816921F00401816142
:10281000206881692A69114311E0206801F098FB62
:102820002068816941F4006181612068816921F437
:1028300080618161206881692A6941EA02218161A0
:1028400024E0206801F0B0FB2068C16941F0080174
:10285000C1612068C16921F00401C1612068C169BA
:102860002A69114311E0206801F0CAFB2068C169A0
:1028700041F40061C1612068C16921F48061C161D6
:102880002068C1692A6941EA0221C161002084F8F7
:102890003C0070BD10B5040003D094F83D0010B1A9
:1028A00007E0012010BD002084F83C00204600F025
:1028B0001FF8022084F83D00211D206801F0CAFAAB
:1028C000012084F8460084F83E0084F83F0084F834
:1028D000400084F8410084F8420084F8430084F802
:1028E000440084F8450084F83D00002010BD00003D
:1028F00008B50068B0F1804F08D10548C16941F0C2
:102900000101C161C06900F00100009008BD000034
:10291000001002407047000010B50446022249B181
:1029200004290ED0082913D094F84100012816D0AC
:10293000012010BD94F83E000128F9D184F83E2012
:102940000FE094F83F000128F2D184F83F2008E01E
:1029500094F840000128EBD184F8402001E084F88D
:1029600041200122206801F0ABFA0F49206888421B
:1029700003D1426C42F4004242642068884208D08D
:10298000B0F1804F05D00949884202D008498842F9
:1029900004D1816801F00701062903D0016841F0E4
:1029A00001010160002010BD002C01400004004026
:1029B0000008004010B50068084988420CD100F0BA
:1029C000FFFA0748007818B1BDE81040FDF7E2BDF6
:1029D000BDE8104000F054BD10BD000000040040F0
:1029E000FC010020704770B5040004D094F83D004D
:1029F000002510B106E0012070BD84F83C5020464F
:102A000000F022F8242084F83D002068C16821F4F9
:102A10000051C160204601F039FB2068016921F4B2
:102A2000904101612068416921F02A0141612068DB
:102A3000C16841F40051C1602564202084F83D0044
:102A400084F83E00002070BD30B585B000240094AD
:102A50000194029403940068174988422AD11748C8
:102A6000816941F480418161816901F4804104916F
:102A7000816941F0080181618069114D00F0080011
:102A800004904020009002200190032003906946AA
:102A90002846FEF7E9FE8020CDE900046946284675
:102AA0000294FEF7E1FE0748416841F0E06141F021
:102AB0000401416005B030BD003801400010024003
:102AC000000C0140000001402DE9F843044690F855
:102AD0003D001F4616460D4620284CD1C5B1BEB15B
:102AE00094F83C00012846D0012084F83C004FF0C7
:102AF0000008C4F84080212084F83D00FEF7AAFFBA
:102B0000A6848146E684A068B0F5805F03D004E027
:102B10000120BDE8F883206928B12E465FF000054A
:102B200084F83C800EE00026FAE78021204601F080
:102B300009FBA0B9AEB116F8010B21684860E08C22
:102B4000401EE084E08C4B464FF0000200970028C6
:102B5000EBD14FF04001204601F0F4FA30B10320F0
:102B6000D7E735F8020BC0F30800E6E7202084F829
:102B70003D000020CDE70220CBE7000010B50C217E
:102B80000448FFF7C9FEBDE8104008210148FFF7DF
:102B9000C3BE0000D0000020094910B50020888085
:102BA000891D88800146FEF723F806482021016030
:102BB00010210160082101600421016010BD0000A6
:102BC000300000201008014070B5254CC0F3090208
:102BD00002F58070A51F234B2280C0F309002880D6
:102BE00033F91000688033F912206280002900DA7E
:102BF000494241F2DB335943C1F30B31002800DA7B
:102C000040424843C0F30F30A880002A00DA524205
:102C10004A43C2F30F31A180FDF7EAFF1249B5F92B
:102C2000025020221023081F002D02DD02600B60DD
:102C300004E001DA0A6000E002600360B4F90240D7
:102C40004FF008034FF00402002C02DD03600A601D
:102C500070BD01DA0B6000E00360026070BD00002F
:102C600036000020CA46000814080140094910B582
:102C700000208880891D88800146FDF7B9FF06483D
:102C80002021016010210160082101600421016000
:102C900010BD00003000002014080140FEE70000D5
:102CA00003484FF080410161C91301617047000082
:102CB0000010014010B50C4940F271240A68C1E9C6
:102CC00000020B69821AC3EB8313624303EB4212C7
:102CD000CB6813449A11A3EB8213C1E90203C1E943
:102CE00004208A6110BD0000540600200448002121
:102CF000016041608160C160016141618161704733
:102D000054060020024A10605060116190607047C4
:102D1000540600202DE9FE4F71494FF0000844F69B
:102D20002064C96A0291471A6D48026A4169456A7E
:102D3000A2EB0103994602EB010A33D00246D168A7
:102D4000126A5318511A8B460193C5B30146002FDE
:102D50004E68896900915CDD002D7DDDB5427CDC2B
:102D600082462846FDF772FA0146FDF7FFF9009901
:102D7000FDF7FCF9FDF773FA8742504639DDB5429D
:102D80000FDA019991FBF4F291FBF4F32A4404FB6E
:102D90001311C0E90812B24203DBC0F82080CAF860
:102DA00024608AE0C1694A42954209DB8D4207DC12
:102DB000C0F82080C0F82480C0F828807DE005E0BD
:102DC000002D01DD19465EE069DB76E0002F07DDAE
:102DD00093FBF4F2426293FBF4F204FB123106E03F
:102DE00091FBF4F2426291FBF4F204FB12B1016236
:102DF00063E099FBF4F299FBF4F32A4404FB13918A
:102E0000C0E90812002A58DCC0F82080CAF82480E3
:102E100053E0002D36DA7642B54240DB8146284643
:102E2000FDF714FA0146FDF7A1F90099FDF79EF9A7
:102E3000FDF715FA79428142484614DDB5423CDD82
:102E40009BFBF4F29BFBF4F32A4404FB13B1C0E9AF
:102E50000812B24231DC01E021E013E0C0F820802A
:102E6000C9F8246029E09AFBF4F39AFBF4F204FB1E
:102E700013A15219C0E908121FD4C0F82080C9F864
:102E800024801AE0494691FBF4F291FBF4F32A44C2
:102E900004FB1391C0E90812002A0ADD0DE09AFB39
:102EA000F4F39AFBF4F204FB13A15219C0E90812DF
:102EB00003D4C0F82080C0F824800948029BD0E9E0
:102EC0000921114491FBF4F52B4491FBF4F504FB2B
:102ED0001511C0E90A13C0E90C32BDE8FE8F0000ED
:102EE0007006002070B50E4C207810B90D4800F027
:102EF00043F8207A0C4D10B9284600F04FF8207C9A
:102F000010B9284600F01CF84FF44840E06100205A
:102F100020626062A062E0622063606370BD0000B6
:102F2000700600200010270000204E00034A0023F6
:102F3000C2E90831C2E90A3070470000700600207B
:102F400010B5002800DA4042094A411E094C91425E
:102F50000AD86061FDF77AF901464FF07C50FDF721
:102F600037F9A061012000E00020207410BD0000AE
:102F7000FF3F0D0370060020002800DA4042054B99
:102F8000421E05499A4202D84860012000E0002014
:102F900008707047FF0F270070060020002800DA35
:102FA0004042054B421E05499A4202D8C8600120A2
:102FB00000E0002008727047FF3F0D0370060020FC
:102FC00010B500F04FF805484188801DA0F10A02B5
:102FD0000180126832F81110418010BD24000020D9
:102FE00070B500F09DF8FFF7EBFF0A20FEF796FBA7
:102FF000FFF7E6FF0A20FEF791FBFFF7E1FF0A204B
:10300000FEF78CFBFFF7DCFF0A20FEF787FBFFF7DC
:10301000D7FF0D4A0120A2F10A01107109680020B2
:103020004FF6FF734FF4804431F810509D4202D1A7
:103030000020107170BD401C80B2A042F4D3BDE8E6
:10304000704002A001F0B8B82A000020466C6173FD
:103050006820646174612069732076616C69642101
:103060000D0A00002DE9FE4F4FF40340ADF80400B7
:103070004FF4044000258604264CDFF89C90ADF800
:1030800006006F1E4FF4805B4FF0010A266001239B
:1030900002AA01A921480097FFF794F8D846C4F87E
:1030A00000B026600DF10A020123111F1B48009792
:1030B000FFF788F8C4F80080BDF80800BDF80A30B2
:1030C000C0B260F31F2300214A46A9F80030084629
:1030D0004FEA0A0C0CFA00F813EA080F01D0491C59
:1030E000C9B2401CC0B21028F4D3C80708D00020D1
:1030F0006D1CEDB289F80500032DC7D3BDE8FE8F26
:1031000082F805A0C3F38D01518003F0020189F814
:103110000410F3E7100C0140240000207800002088
:10312000044800210180418003494FF48050086029
:103130007047000024000020100C01400F4810B51B
:103140000D4901600421416000214FF4002281609B
:10315000C0E903124FF4E0024261017641768176C4
:10316000C17601774177FEF74DF9002803D0BDE81D
:103170001040FDF7BFBE10BD0064004050000020AD
:103180002DE9F04385B00024344800940194029462
:103190000394816941F010018161816901F010019E
:1031A0000491816941F020018161816901F0200170
:1031B0000491816941F004018161816901F0040198
:1031C0000491816941F0080181618069244E00F019
:1031D00008004FF440450490012229463046FEF78E
:1031E00033FCDFF8809000223C214846FEF72CFC9F
:1031F0000122DFF87480170339464046FEF724FCAD
:103200000220CDE90240009501256946019530462E
:10321000FEF72AFB3C200326CDE90005CDE9024656
:1032200069464846FEF720FB04208DE831006946D8
:103230004046FEF719FB00970396CDE90154694615
:103240004046FEF711FBE8038DE831006946484629
:10325000FEF70AFB05B0BDE8F08300000010024055
:103260000010014000080140000C0140114810B559
:103270000F4901604FF48271416000214FF40062F8
:10328000C0E90212022202610122426152028261FD
:103290000822C0E90721416281620A21C162FEF76A
:1032A000F7FE002803D0BDE81040FDF723BE10BD97
:1032B000003001407800002010B58AB00024079447
:1032C0001C2168460894FCF746FF1A484FF08041DD
:1032D000C0E9001440F2FF31C0E9024180210461DD
:1032E0008161FFF7D7FA08B1FDF704FE079407A93B
:1032F00010480894FFF76EF808B1FDF7FBFD602059
:10330000CDE900040294082269460A480494FFF7B4
:103310005EFA08B1FDF7EEFD0C2269460548FFF79D
:1033200056FA08B1FDF7E6FD0248FFF71FFA0AB0AA
:1033300010BD0000D000002010B586B00024164853
:103340000094019402940394049412490594C0E9F2
:10335000001440F60F61C0E9024104618461FFF787
:103360006DF808B1FDF7C6FD4FF480500090694636
:103370000948FFF7DBF808B1FDF7BCFD049404A988
:1033800005480594FFF726F8002801D0FDF7B2FDA7
:1033900006B010BD00040040180100200C4810B514
:1033A0000A4901604FF4E1314160002181600C2243
:1033B000C160C0E904128161C161FFF714FB0028FC
:1033C00003D0BDE81040FDF795BD10BD00380140A9
:1033D00060010020FEE7000070B52549254A264C13
:1033E0004B4255426642002821DA884201DD002026
:1033F00070BD904205DD18444FF4837148430015B9
:103400000FE0A04206DD2844C0EB0010C0EBC00076
:103410001A4904E030443421484318495A3901EB31
:103420002050164982398842E2DA084670BD984237
:10343000DDDBA84205DA08444FF4837148430015E8
:1034400010E0B04207DA1044C0EB0010C0EBC0003F
:103450004FF4967104E02044342148434FF4C37183
:1034600001EB20504FF4D7718842DEDC70BD0000C4
:103470006079FEFFE029ECFF406EDEFFD4FEFFFF27
:103480002DE9F047EE4FEF4DEF4C39786888002674
:1034900039B1A060E0602061606178603E70BDE895
:1034A000F087A168C4E90201411AB1F5C84F02DDF5
:1034B000A1F5484104E011F5C84F01DA01F5484192
:1034C00020690144C4E90410081AE26940F271213C
:1034D0004843C2EB4212A16902EB4010014448117B
:1034E000A1EB4011C4E90610FFF776FF20622169C5
:1034F0000144A162E06B411AE16294F8581071B97D
:1035000094F8461059B9297949B194F8471059B13E
:1035100000F0ACF9E6642665FFF73EFB30E000F012
:10352000A5F9E66426651CE02179222920D00BDC70
:10353000102916D003DC01B3012921D114E0202980
:103540001BD021291CD10FE031290DD004DC232907
:1035500013D0302914D110E0322909D033290FD1EA
:103560000BE0FFF783FB0BE0206CFDF7F3FA07E0BD
:10357000B4F94400FDF7EEF902E0216CFDF750FAD2
:1035800021796078012581421DD02071222818D030
:103590000BDC102815D003DC98B1012813D110E002
:1035A00020280ED021280ED10BE0312809D004DCD0
:1035B000232806D0302806D103E0322801D0332852
:1035C00001D184F848502079222815DD31280AD00D
:1035D00004DC232810D030280ED104E0322802D099
:1035E000332809D106E078682063F8686063388979
:1035F000208701E0786820639449606B884202DC90
:103600004942884200DA6163B4F938004FF4FA673E
:10361000B84201DD278703E08D49884200DA21871F
:1036200094F8460010B194F83A00D0B194F84700ED
:1036300010B194F83B00A0B194F8480028B300BF43
:1036400084F8486000F012F900F020F9207922286F
:1036500025D009DC10282EDD202817D021282AD1DA
:1036600019E084F84850EBE7312814D004DC232813
:1036700007D030281FD109E0322810D033281AD1C2
:1036800013E0E169A06A00F01DFA14E0E169A06AA4
:10369000FFF74CFC0FE0E06900F01AFB0BE0B4F818
:1036A000500000B2FDF716FB05E0E169A06AFFF7E4
:1036B00029FBA06A20632079DFF89881DFF89891D0
:1036C000DFF898A1222821D00BDC102826D003DCBB
:1036D000A0B1012822D114E020283DD021281DD1FD
:1036E00043E0312841D004DC23282CD0302815D1E8
:1036F00032E032280AD0332810D13CE000F024F91F
:103700000CE000F037F909E0206407E0B4F9380074
:10371000FDF778FABAF81800A4F8440094F83A00D3
:1037200084F8460094F83B0084F84700226D002A94
:1037300000DA524221794A4B4FF4205C222922D0F0
:10374000322920D02FE0D4E90C0100F01BF94548C4
:10375000016BE163406BD7E7206BFFF7DBFAD8F82A
:103760003010E163D8F83400CEE7606B00F048FA1F
:10377000D9F81800C8E7206BFFF79CFA3A4841696E
:10378000E1638069C0E7FAB1E069002800DA4042ED
:10379000604508DA606D984202D384F8585014E00E
:1037A0003230606511E0BA420ED1E069002800DADB
:1037B0004042604508DA606D984202D384F8585060
:1037C00005E03230606502E06665BA4208D1E06D1E
:1037D000984202D384F8605005E03230E06502E0A0
:1037E000E66584F86060102904D094F8580020B190
:1037F000042006E084F8616051E694F8600018B196
:10380000032084F861004AE60220202904D02129FF
:103810000CD022290DD006E0226BE16B9142F0D151
:10382000216C0029EDD184F8615038E6626B216C7F
:1038300003E0B4F94410B4F938209142F3D0E0E742
:103840003C0000202A000020D405002000102700A2
:1038500030F8FFFF70060020E00600203806002048
:1038600040420F00A8060020540600200649002010
:1038700048628862C8613031C86208634862C861C2
:103880003831086048607047600500200248002118
:10389000416580F858107047D4050020214A10B5C2
:1038A000107810B9332000F03FF8907810B901205B
:1038B00000F042F81020107100209060D06010617C
:1038C00050619061D06110629062D0621063506369
:1038D000108782F83A0082F83B00D0631064A2F8A7
:1038E000440082F8460082F8470082F84800D0641D
:1038F0001065506582F85800D06582F8600082F843
:103900006100FDF7E5F8FDF737F8FFF7EBFA00F097
:10391000C9F9FDF7C9F900F0B7F8BDE81040FFF7A5
:10392000E5B90000D4050020024948700120087064
:1039300070470000D40500200249C870012088703B
:1039400070470000D4050020094883680168C3EB74
:103950000312C2EBC20201EB8202D115A2EBC152EB
:10396000C0E900210C30C26B1144C0E90F1370474D
:10397000C8050020024802490C318068086470477D
:10398000C80500202DE9F84F3D4C0E462246D4F8DC
:1039900018C0D2E908750021D2F82C8044F62069BD
:1039A000B44502D1E26982421CD02161C4E90660BB
:1039B000A0EB08008A464000FCF748FC0090701B12
:1039C000FCF744FC8346A819FCF740FC5946FCF779
:1039D000CDFB0099FCF7FCFBFCF741FCE06084F8B0
:1039E00014A02FE0274A2069904202DB01202075B5
:1039F00003E032302061207D20B32148002D406853
:103A00000FD010DDA7EB0002484692FBF0F32B44E9
:103A100092FBF9F509FB1520C4E90803002B0EDD24
:103A20001CE021621AE038444A4690FBF2F35B192D
:103A300090FBF9F509FB1500C4E908030ED42162D7
:103A400061620BE0E0684946384490FBF1F22A4499
:103A5000626290FBF9F209FB12002062D4E90920AE
:103A60001044494690FBF1F505EB080390FBF9F58E
:103A700009FB1500C4E90A03C4E90C32BDE8F88F5C
:103A8000A8060020400D030010B50C4C207810B99A
:103A90000B4800F023F8207A10B9C82000F030F865
:103AA0000020E06020612075A061E061206260621A
:103AB000A062E0622063606310BD0000A8060020E1
:103AC00000204E00044A002313611375C2E9083137
:103AD000C2E90A3070470000A8060020002800DA7A
:103AE0004042054B421E05499A4202D848600120D7
:103AF00000E0002008707047FF3F0D03A80600207B
:103B0000A0F132024CF21E3304499A4202D8488195
:103B1000012000E00020087270470000A806002085
:103B2000FEE7704738B50B4600920446002280211C
:103B300000F008F8002804D0606D40F020006065B7
:103B4000032038BD2DE9F8431E46914688460446B9
:103B5000089DFDF77FFF401B351AFDF77BFF0746E9
:103B600025480068C0F3CB30684338E0701C37D07C
:103B7000FDF770FFC01BA84203D215B1009860B3D7
:103B80002CE02068416821F0E00141606068B0F5F8
:103B9000827F0BD1A068B0F5004F02D0B0F5806FE6
:103BA00004D12068016821F040010160A06AB0F5ED
:103BB000005F09D12068016821F40051016020688C
:103BC000016841F400510160012084F85100002097
:103BD00084F850000320BDE8F8830025401E0090C3
:103BE0002068816838EA010004D000214945BDD130
:103BF0000020F0E70121F9E70C00002070470000E9
:103C0000F0B5274900230F464C697E683D69A0EB5B
:103C1000040CFF6844F62062BCF1000F0FD01CDDDD
:103C2000002C0EDB354495FBF2F6344495FBF2F69E
:103C300002FB1652C1E9042484421CDA2CE04861DC
:103C40002AE0E81990FBF2F52C1990FBF2F502FB43
:103C50001500C1E904041DD51EE0002C0EDCAD1BCF
:103C600095FBF2F6344495FBF2F602FB1652C1E9DD
:103C70000424844210DCC1E904300DE0E81B90FB11
:103C8000F2F52C4490FBF2F502FB1500C1E90404A7
:103C9000002C01DC0B614B6148698861F0BD0000BC
:103CA000E006002030B5084C084D207810B92846B1
:103CB00000F028F8207A10B9284600F011F800200A
:103CC00020616061A06130BDE006002000204E0050
:103CD00002490022C1E9042070470000E0060020EC
:103CE000002800DA4042054B421E05499A4202D89C
:103CF000C860012000E0002008727047FF3F0D03FC
:103D0000E0060020002800DA4042054B421E05492B
:103D10009A4202D84860012000E0002008707047F5
:103D2000FF3F0D03E00600200449034A4A60044AAD
:103D30004A600168C1607047230167450020024066
:103D4000AB89EFCD10B5104C86B00E4961600F49BC
:103D5000616000210091016802918068039004A9CC
:103D60006846FDF7EDFC4FF0FF30FDF725F92069BF
:103D700020F002002061206940F08000206106B040
:103D800010BD00002301674500200240AB89EFCD44
:103D90000248016941F08001016170470020024042
:103DA0002DE9F0410F460446C1680068164681427D
:103DB00016D3626801EB46011044814210D80025F9
:103DC0000CE000BF37F8152000230120E168FDF763
:103DD0000BFD10B9E068801CE0606D1CB542F1D3AA
:103DE000BDE8F081FDF73CBE30B58FB028216846B4
:103DF000FCF7B1F914210AA8FCF7ADF90121080478
:103E0000CDE900100024029402250491CDE9075069
:103E1000000109906846FDF7ABFF08B172B6FEE7F6
:103E20000F20CDE90A054FF48060CDE90C40022156
:103E30000AA80E94FDF7ACFE002801D072B6FEE78A
:103E40000FB030BD704700000148FEF7DBBB00003B
:103E500018010020F0B50268164B174C174D4FF0B3
:103E60008047984205D0B84203D0A04201D0A84272
:103E700003D122F070064A683243984205D0B84216
:103E800003D0A04201D0A84203D122F44074CA68F2
:103E900022434C6922F08002224302608A68C26297
:103EA0000A688262984201D1096901630121416176
:103EB000F0BD0000002C014000040040000800405C
:103EC00010B501F01F030121046A99408C4304627C
:103ED000016A9A401143016210BD10B5846842EA3C
:103EE000032224F47F440A432243826010BD826887
:103EF00022F070020A4342F007018160704700001F
:103F000030B5026A22F001020262026A43688469E3
:103F100024F073050C682C4322F002058A682A43BA
:103F20000A4DA8420BD122F00805CA6823F4407359
:103F30002A434D6922F004021D438B692B434360E1
:103F4000846149684163026230BD0000002C014079
:103F500030B5026A22F010020262026A4368846984
:103F60000D6824F4E64444EA05248D6822F020021A
:103F700042EA05120B4DA8420ED1CD6822F0800214
:103F800042EA05124D6923F4406343EA85038D69D3
:103F900022F0400243EA85034360846149688163FB
:103FA000026230BD002C014030B5026A22F48072FA
:103FB0000262036A4268C46923F4007324F0730543
:103FC0000C682C438D6843EA05230C4DA8420ED1A2
:103FD000CD6823F4006343EA05234D6922F440527F
:103FE00042EA05128D6923F4806342EA05124260B9
:103FF000C4614968C163036230BD0000002C014008
:1040000030B5026A22F480520262046A4268C369CF
:104010000D6823F4E64343EA05238D6824F4005435
:1040200044EA0534064DA84204D14D6922F4804289
:1040300042EA85124260C36149680164046230BD8E
:10404000002C014010B5036A046A24F001040462E4
:10405000846924F0F00444EA021423F00A020A43BB
:104060008461026210BD10B5036A23F0100303627D
:104070008369046A23F4704343EA023224F0A00304
:1040800043EA01118261016210BD000070B504466F
:1040900000680169E26821F440511143016121691E
:1040A000A0680843616908432168CA6841F20C634B
:1040B0009A430243CA6020684169A26921F44071B1
:1040C000114341611E492068884202D1FDF706FE76
:1040D00001E0FDF7F3FD00EBC00101EB00126068A9
:1040E00064218000B2FBF0F3B3FBF1F36FF018062C
:1040F0007343B2FBF0F5B2FBF0F605EB8305322318
:1041000003EB0515B5FBF1F5B6FBF1F605F0F0058F
:1041100005EB0615B2FBF0F6B2FBF0F0B0FBF1F0E8
:104120006FF01802504306EB800003EB0010B0FB69
:10413000F1F0216800F00F002844886070BD000095
:10414000003801402DE9F041984617460E460446D6
:10415000069D1DE0681C1BD02DB1FDF77BFCA0EB7C
:104160000800A84214D92068C16821F4D071C16048
:104170002068416921F001014161202084F83D005F
:1041800084F83E00002084F83C000320BDE8F08164
:104190002068006836EA000004D00020B842D9D078
:1041A0000020F3E70120F9E70148FDF72DB80000F2
:1041B00050000020FEE700000FB4054B10B503A926
:1041C000044A029800F028F810BC5DF814FB0000C7
:1041D000714600084C0000200907090E002804DB86
:1041E00000F1E02080F80014704700F00F0000F1AB
:1041F000E02080F8141D704702E008C8121F08C1B3
:10420000002AFAD170477047002001E001C1121F57
:10421000002AFBD1704700002DE9FF4F8DB00F46FB
:104220000546002606E025280BD0DDE90F12904751
:104230006D1C761C28780028F5D111B03046BDE8F9
:10424000F08F0024A246A1460122E94900E0044380
:1042500015F8013F203B02FA03F00842F7D1287815
:104260002A2810D06FF02F022878A0F130010929F8
:1042700014D80AEB8A0102EB410144F0020400EB7E
:10428000010A6D1CF0E701CF5FEA000A03D544F490
:104290000054CAF1000A44F002046D1C28782E284C
:1042A00017D115F8010F44F004042A280ED06FF03E
:1042B0002F022878A0F1300109290AD809EB8901D9
:1042C00002EB410100EB01096D1CF2E757F8049B7A
:1042D0006D1C28786C280FD006DC4C2817D0682875
:1042E0000DD06A2814D104E0742810D07A280FD198
:1042F0000DE044F400140AE044F4801401E044F4B6
:1043000040146978814202D104F580146D1C6D1C43
:1043100028786E281ED00CDC632830D004DC0028FE
:104320008BD0582811D19FE0642867D069280CD120
:1043300064E073282DD004DC6F2872D0702804D17B
:1043400094E075286ED078286DD0DDE90F12904783
:10435000761C4BE1C4F30250022806D0032809D092
:10436000042801CF09D0066040E101CFF117C0E970
:1043700000613BE101CF068038E1067036E117F8B5
:10438000040B8DF8000000208DF80100EB460120A1
:1043900003E057F804BB4FF0FF3061074FF0000116
:1043A00002D40DE008F10101884649450FDA804545
:1043B000F8DB1BF808100029F4D108E008F101012E
:1043C00088468142FADB1BF808100029F6D1DDE9A6
:1043D0000F23AAEB08008146214600F031F9304452
:1043E00000EB080604E0DDE90F121BF8010B904713
:1043F000B8F10108F7D221464846F2E00A21C4F399
:1044000002524FF0000B0891022A04D001CFC117CD
:10441000032A09D00AE0FF1D27F00707F7E8020189
:1044200008E02CE01EE01FE000B2C117042A01D111
:1044300040B2C117021E71F1000206DA0023D0EB70
:10444000030063EB01012D2202E0220504D52B229B
:104450008DF82420012203E0E20701D02022F7E7B3
:10446000904653E00A210BE0102109E010214FF0A3
:10447000000B44F004044FF00809089103E0082100
:104480004FF0000B0891C4F30252022A04D001CF6E
:104490000021032A06D006E0FF1D27F00707F7E8F2
:1044A000020103E080B2042A00D1C0B24FF000083C
:1044B00022072BD52A78702A07D0DDF820C08CF08F
:1044C000100C5CEA0B0C05D00EE040228DF8242085
:1044D000012208E050EA010306D030238DF8243091
:1044E0008DF8252002229046089B83F0080353EAAA
:1044F0000B030BD150EA010201D1620706D530222D
:104500008DF824204FF00108A9F101092A78582AD2
:1045100004D038A20B9208AA0A920BE03AA2F9E75B
:104520005B46089AFBF7B4FE0B9B9B5C0A9A521EF3
:104530000A92137050EA0102F2D10A98ADEB000022
:1045400000F1200B600702D524F4803401E04FF025
:104550000109D94502DDA9EB0B0000E0002000EBCA
:104560000B0141440890AAEB010AE00306D4DDE9FF
:104570000F232146504600F063F806444FF000092F
:1045800008E009A911F80900DDE90F12904709F1C7
:104590000109761CC145F4DBE0030CD5DDE90F23EE
:1045A0002146504600F04CF8064404E0DDE90F12C5
:1045B00030209047761C0899481E08900029F5DCA9
:1045C00008E00A980A990078491C0A91DDE90F125F
:1045D0009047761CBBF10001ABF1010BF1DC2146E9
:1045E0005046DDE90F2300F019F806446D1C21E662
:1045F00009280100303132333435363738396162B9
:10460000636465660000000030313233343536377C
:104610003839414243444546000000002DE9F0414D
:10462000044600251E461746880404D405E0394692
:104630002020B0476D1C641EF9D52846BDE8F081E6
:104640002DE9F041044600251E469046C80301D5D9
:10465000302700E02027880404D505E0414638468D
:10466000B0476D1C641EF9D52846BDE8F0810000F6
:1046700013B54FF6FF73012269460248FEF724FA8C
:1046800000981CBD60010020FDF7F2F9FFF7ACFBBC
:10469000FEF776FDFEF782FEFEF7E8FDFEF70CFE64
:1046A000FEF74AFEFEF74AFDFCF788FBFCF7F4FB39
:1046B000FCE7000000000000000001020304060700
:1046C0000809000000000102030400001900320084
:1046D0004B0065007E009700B000C900E200FB00BF
:1046E00014012D0146015F0178019101AA01C30166
:1046F000DC01F5010E0227024002590272028B0210
:10470000A302BC02D502EE0206031F0338035003C6
:10471000690381039A03B203CB03E303FC0314048C
:104720002C0444045D0475048D04A504BD04D50463
:10473000ED0405051D0534054C0564057C05930550
:10474000AB05C205DA05F10508061F0637064E0659
:1047500065067C069306AA06C106D706EE0605077F
:104760001B07320748075E0775078B07A107B707C6
:10477000CD07E307F9070E0824083A084F08650833
:104780007A088F08A508BA08CF08E408F8080D09C8
:10479000220937094B095F09740988099C09B00986
:1047A000C409D809EC09FF09130A260A3A0A4D0A76
:1047B000600A730A860A990AAC0ABF0AD10AE40A97
:1047C000F60A080B1B0B2D0B3E0B500B620B740BE8
:1047D000850B970BA80BB90BCA0BDB0BEC0BFC0B77
:1047E0000D0C1E0C2E0C3E0C4E0C5E0C6E0C7E0C3A
:1047F0008E0C9D0CAC0CBC0CCB0CDA0CE90CF80C40
:10480000060D150D230D320D400D4E0D5C0D690D7D
:10481000770D850D920D9F0DAC0DB90DC60DD30D05
:10482000DF0DEC0DF80D040E100E1C0E280E340ECC
:104830003F0E4B0E560E610E6C0E770E810E8C0ED7
:10484000960EA10EAB0EB50EBF0EC80ED20EDB0E2D
:10485000E40EEE0EF70EFF0E080F110F190F210FC9
:10486000290F310F390F410F480F500F570F5E0FAF
:10487000650F6C0F720F790F7F0F850F8B0F910FE4
:10488000970F9C0FA20FA70FAC0FB10FB60FBB0F66
:10489000BF0FC40FC80FCC0FD00FD40FD70FDB0F33
:1048A000DE0FE10FE40FE70FEA0FEC0FEF0FF10F50
:1048B000F30FF50FF70FF80FFA0FFB0FFC0FFD0FBB
:1048C000FE0FFF0FFF0F001000100010001000106F
:1048D000FF0FFF0FFE0FFD0FFC0FFB0FFA0FF80F7E
:1048E000F70FF50FF30FF10FEF0FEC0FEA0FE70FD4
:1048F000E40FE10FDE0FDB0FD70FD40FD00FCC0F7B
:10490000C80FC40FBF0FBB0FB60FB10FAC0FA70F6F
:10491000A20F9C0F970F910F8B0F850F7F0F790FB1
:10492000720F6C0F650F5E0F570F500F480F410F3E
:10493000390F310F290F210F190F110F080FFF0E1B
:10494000F70EEE0EE40EDB0ED20EC80EBF0EB50E45
:10495000AB0EA10E960E8C0E810E770E6C0E610EB4
:10496000560E4B0E3F0E340E280E1C0E100E040E6B
:10497000F80DEC0DDF0DD30DC60DB90DAC0D9F0D6F
:10498000920D850D770D690D5C0D4E0D400D320DAC
:10499000230D150D060DF80CE90CDA0CCB0CBC0C34
:1049A000AC0C9D0C8E0C7E0C6E0C5E0C4E0C3E0CFA
:1049B0002E0C1E0C0D0CFC0BEC0BDB0BCA0BB90BFD
:1049C000A80B970B850B740B620B500B3E0B2D0B3A
:1049D0001B0B080BF60AE40AD10ABF0AAC0A990AB3
:1049E000860A730A600A4D0A3A0A260A130AFF0960
:1049F000EC09D809C409B0099C09880974095F0940
:104A00004B09370922090D09F808E408CF08BA084C
:104A1000A5088F087A0865084F083A0824080E0888
:104A2000F907E307CD07B707A1078B0775075E07EF
:104A3000480732071B070507EE06D706C106AA0678
:104A400093067C0665064E0637061F060806F10526
:104A5000DA05C205AB0593057C0564054C053405F4
:104A60001D050505ED04D504BD04A5048D047504DC
:104A70005D0444042C041404FC03E303CB03B203DD
:104A80009A0381036903500338031F030603EE02F0
:104A9000D502BC02A3028B02720259024002270215
:104AA0000E02F501DC01C301AA01910178015F0149
:104AB00046012D011401FB00E200C900B00097007F
:104AC0007E0065004B00320019000000E7FFCEFFBA
:104AD000B5FF9BFF82FF69FF50FF37FF1EFF05FFF9
:104AE000ECFED3FEBAFEA1FE88FE6FFE56FE3DFE32
:104AF00024FE0BFEF2FDD9FDC0FDA7FD8EFD75FD68
:104B00005DFD44FD2BFD12FDFAFCE1FCC8FCB0FC90
:104B100097FC7FFC66FC4EFC35FC1DFC04FCECFBAA
:104B2000D4FBBCFBA3FB8BFB73FB5BFB43FB2BFBB3
:104B300013FBFBFAE3FACCFAB4FA9CFA84FA6DFAA6
:104B400055FA3EFA26FA0FFAF8F9E1F9C9F9B2F97D
:104B50009BF984F96DF956F93FF929F912F9FBF837
:104B6000E5F8CEF8B8F8A2F88BF875F85FF849F8D0
:104B700033F81DF807F8F2F7DCF7C6F7B1F79BF743
:104B800086F771F75BF746F731F71CF708F7F3F68E
:104B9000DEF6C9F6B5F6A1F68CF678F664F650F6B0
:104BA0003CF628F614F601F6EDF5DAF5C6F5B3F5A0
:104BB000A0F58DF57AF567F554F541F52FF51CF55F
:104BC0000AF5F8F4E5F4D3F4C2F4B0F49EF48CF4EE
:104BD0007BF469F458F447F436F425F414F404F43F
:104BE000F3F3E2F3D2F3C2F3B2F3A2F392F382F35C
:104BF00072F363F354F344F335F326F317F308F336
:104C0000FAF2EBF2DDF2CEF2C0F2B2F2A4F297F2D7
:104C100089F27BF26EF261F254F247F23AF22DF22F
:104C200021F214F208F2FCF1F0F1E4F1D8F1CCF148
:104C3000C1F1B5F1AAF19FF194F189F17FF174F11D
:104C40006AF15FF155F14BF141F138F12EF125F1A7
:104C50001CF112F109F101F1F8F0EFF0E7F0DFF0EB
:104C6000D7F0CFF0C7F0BFF0B8F0B0F0A9F0A2F0E5
:104C70009BF094F08EF087F081F07BF075F06FF090
:104C800069F064F05EF059F054F04FF04AF045F0EE
:104C900041F03CF038F034F030F02CF029F025F001
:104CA00022F01FF01CF019F016F014F011F00FF0C4
:104CB0000DF00BF009F008F006F005F004F003F039
:104CC00002F001F001F000F000F000F000F000F060
:104CD00001F001F002F003F004F005F006F008F036
:104CE00009F00BF00DF00FF011F014F016F019F0C0
:104CF0001CF01FF022F025F029F02CF030F034F0F9
:104D000038F03CF041F045F04AF04FF054F059F0E3
:104D10005EF064F069F06FF075F07BF081F087F081
:104D20008EF094F09BF0A2F0A9F0B0F0B8F0BFF0D4
:104D3000C7F0CFF0D7F0DFF0E7F0EFF0F8F001F1D7
:104D400009F112F11CF125F12EF138F141F14BF18D
:104D500055F15FF16AF174F17FF189F194F19FF1FE
:104D6000AAF1B5F1C1F1CCF1D8F1E4F1F0F1FCF127
:104D700008F214F221F22DF23AF247F254F261F203
:104D80006EF27BF289F297F2A4F2B2F2C0F2CEF2A6
:104D9000DDF2EBF2FAF208F317F326F335F344F3FE
:104DA00054F363F372F382F392F3A2F3B2F3C2F318
:104DB000D2F3E2F3F3F304F414F425F436F447F4F5
:104DC00058F469F47BF48CF49EF4B0F4C2F4D3F498
:104DD000E5F4F8F40AF51CF52FF541F554F567F5FF
:104DE0007AF58DF5A0F5B3F5C6F5DAF5EDF501F632
:104DF00014F628F63CF650F664F678F68CF6A1F632
:104E0000B5F6C9F6DEF6F3F608F71CF731F746F704
:104E10005BF771F786F79BF7B1F7C6F7DCF7F2F7A8
:104E200007F81DF833F849F85FF875F88BF8A2F821
:104E3000B8F8CEF8E5F8FBF812F929F93FF956F978
:104E40006DF984F99BF9B2F9C9F9E1F9F8F90FFAAA
:104E500026FA3EFA55FA6DFA84FA9CFAB4FACCFABC
:104E6000E3FAFBFA13FB2BFB43FB5BFB73FB8BFBB4
:104E7000A3FBBCFBD4FBECFB04FC1DFC35FC4EFC93
:104E800066FC7FFC97FCB0FCC8FCE1FCFAFC12FD60
:104E90002BFD44FD5DFD75FD8EFDA7FDC0FDD9FD1B
:104EA000F2FD0BFE24FE3DFE56FE6FFE88FEA1FEC7
:104EB000BAFED3FEECFE05FF1EFF37FF50FF69FF71
:104EC00082FF9BFFB5FFCEFFE7FF0000EC4E00081E
:104ED0000000002050000000F84100083C4F00088E
:104EE00050000020B00A0000084200080100000045
:104EF00010000000000000000024F400007C010805
:104F0000008000002000000000000000007C01087C
:104F10000000000000000000000000000000000091
:104F20000000000000000000010000000000000080
:0C4F300000000000000000000000000075
:04000005080000ED02
:00000001FF
