:020000040800F2
:10000000C0040020050100081B110008370F00087C
:10001000191100089D010008791300080000000074
:10002000000000000000000000000000F9110008BE
:100030009F010008000000001D110008FB110008CE
:100040001F0100081F0100081F0100081F01000810
:100050001F0100081F0100081F0100081F01000800
:100060001F0100081F0100081F0100081F010008F0
:100070001F0100081F0100081F0100081F010008E0
:100080001F0100081F0100081F0100081F010008D0
:100090001F0100081F0100081F0100081F010008C0
:1000A0001F0100081F0100081F0100081F010008B0
:1000B0001F0100081F0100081F0100081F010008A0
:1000C0001F0100081F0100081F0100081F01000890
:1000D0001F0100081F0100081F0100081F01000880
:1000E0001F0100081F0100081F010008DFF810D0E1
:1000F00000F042F80048004749150008AFF30080BF
:10010000C00400200648804706480047FEE7FEE797
:10011000FEE7FEE7FEE7FEE7FEE7FEE7FEE7FEE7B7
:100120005B120008ED000008D2B201E000F8012BDC
:10013000491EFBD270470022F6E710B513460A4667
:1001400004461946FFF7F0FF204610BD30B50B46B8
:10015000014600202022012409E021FA02F59D42F7
:1001600005D303FA02F5491B04FA02F52844151ECB
:10017000A2F10102F1DC30BD064C074D06E0E0685B
:1001800040F0010394E8070098471034AC42F6D3DE
:10019000FFF7B0FF80150008A0150008FEE77047C4
:1001A00010B500224FF40041034800F031F9BDE8DA
:1001B000104000F0D3BE00000010014070B500F008
:1001C000BBFE0C4801880CA001F0D8F801220D4DAF
:1001D00094032146284600F01BF9C82000F016F8C9
:1001E00000222146284600F013F9BDE87040C820DF
:1001F00000F00CB816000020416E676C653A25646B
:100200000D0A00000010014072B6FEE770B504460A
:1002100000F004F90546601C02D00448007804444C
:1002200000F0FCF8401BA042FAD370BD0000002093
:100230002DE9F84FDFF8B891002409F1040A0AF11A
:10024000040B23460F270BF1040EC9E00125A5403E
:100250002A40AA427DD1674ED1F804C0ACEB060813
:10026000B44532D014DCBCF1030F3AD009DCBCF148
:10027000000F2AD0BCF1010F1CD0BCF1020F31D10C
:100280001DE0BCF1110F17D0BCF1120F2AD119E0FB
:10029000B8F5881F19D006DCB8F5803F15D0B8F541
:1002A000801F1FD111E0B8F5001F0ED0B8F5041F54
:1002B00018D10AE0CB6815E0CB681B1D12E0CB68B3
:1002C00008330FE0CB680C330CE08B682BB1012BAB
:1002D0004FF0080303D0456104E0042302E0056108
:1002E00000E00023FF2A01D8064601E000F10406E1
:1002F0004FEA840501D9A5F12005D6F8008007FA58
:1003000005FC28EA0C0803FA05F548EA0508C6F8D2
:1003100000804D68ED0062D5374DAE6946F00106AC
:10032000AE61AD6924F0030605F001050095334D7B
:1003300006EB050CDCF80850A607360F07FA06F89E
:1003400025EA0805DFF8B880404503D14FF00008E2
:1003500017E044E0DFF8AC80404502D14FF00108DF
:100360000FE0DFF8A480404502D14FF0020808E01A
:10037000DFF89880404502D14FF0030801E04FF0CC
:10038000040808FA06F848EA0508CCF808804D6821
:10039000D9F80060ED034D4601D5164300E09643C1
:1003A0002E604D68DAF80060AD03554601D516435E
:1003B00000E096432E604D68DBF80060ED025D467C
:1003C00001D5164300E096432E604D68DEF80060CC
:1003D000AD02754601D5164300E096432E60641CBD
:1003E0000D682A46E5407FF431AFBDE8F88F000084
:1003F0000004014000001110001002400000014004
:1004000000080140000C01400010014000140140B0
:100410000AB1016170470904FBE7000001488068E8
:1004200070470000000000200248816802781144F3
:100430008160704700000020074810B5016841F056
:1004400010010160032000F067F80F2000F006F8AB
:1004500000F024F8002010BD0020024070B50D4DC2
:1004600004464FF47A712878B1FBF0F00A49096824
:10047000B1FBF0F000F081FC48B9102C07D200224B
:100480002146501E00F028F800206C6070BD01204D
:1004900070BD0000000000200C0000200C4808B5D2
:1004A000816941F001018161816901F001010091DF
:1004B000C16941F08051C161C06900F08050009075
:1004C0000448416821F0E06141F00071416008BDDD
:1004D0000010024000000140F0B40E4B1B680C46B7
:1004E000C3F30223C3F10705042D00D90425191D08
:1004F000072901D2002300E0DB1E012606FA05F1E0
:10050000491E214099409E40761E16403143F0BC62
:1005100000F044BF0CED00E0064900F00702086857
:100520004FF6FF03184040EA0220034A10430860D8
:10053000704700000CED00E00000FA052DE9F047DF
:100540000F46050061D0434E306800F00700B84206
:1005500009D2306820F0070038433060306800F07E
:100560000700B84251D128683B4C810712D540079B
:1005700003D5606840F4E06060602878000703D528
:10058000606840F4605060606068A96820F0F00026
:10059000084360602878C00728D06868012810D018
:1005A0002168022810D0890700292EDA616821F01D
:1005B000030101436160FFF731FF804641F2883952
:1005C0000DE021688903EFE78901EDE7FFF726FFDA
:1005D000A0EB0801494502D90320BDE8F087606817
:1005E000696800F00C00B0EB810FEFD1306800F0CB
:1005F0000700B8420BD9306820F00700384330605C
:10060000306800F00700B84201D00120E5E7287803
:10061000400705D56068E96820F4E0600843606041
:100620002878000706D56068296920F4605040EA00
:10063000C100606000F038F86168084AC1F3031136
:10064000515CC8400649086006480068FFF706FF8D
:100650000020C2E70020024000100240661500089A
:100660000C00002004000020044805490068496887
:10067000044AC1F30221515CC84070470C000020BD
:1006800000100240761500080448054900684968D2
:10069000044AC1F3C221515CC84070470C000020DD
:1006A000001002407615000813A185B00FC98DE82F
:1006B0000F0015A0154A00680490516801F00C0065
:1006C000042804D0082804D0114805B07047114808
:1006D000FBE7C1F38343C9031DF8030009D5516843
:1006E00004AAC1F34041515C0A4A5043B0FBF1F007
:1006F000EBE709494843E8E7020304050607080950
:100700000A0B0C0D0E0F1010010200000010024029
:1007100000127A00001BB70000093D002DE9F84FD8
:10072000040070D02078C04DC00749D06868C0F37D
:100730008100012807D06868C0F38100022809D130
:100740006868C00306D52868800339D5606800282A
:10075000E7D035E06068B0F5803F0BD010B1B0F560
:10076000A02F11D0286820F480302860286820F459
:10077000802002E0286840F480302860606890B1F2
:10078000FFF74CFE06460AE0286840F48020286007
:10079000F0E700BFFFF742FE801B642873D828688B
:1007A0008003F7D50CE0FFF739FE064605E000BFF1
:1007B000FFF734FE801B6428F0D828688003F7D444
:1007C00020789A4E80074FF001094FF0000839D584
:1007D000686810F00C0F07D06868C0F38100022829
:1007E00009D16868C00306D42868800714D5206939
:1007F000012808D110E02069B0B1C6F80090FFF7D9
:100800000DFE074605E00AE1FFF708FEC01B0228BF
:10081000C4D828688007F7D52868616920F0F800F7
:1008200040EAC10028600DE0C6F80080FFF7F6FD41
:10083000074604E0FFF7F2FDC01B022823D8286812
:100840008007F7D4207800072CD57948A169D9B161
:10085000C0F80090FFF7E2FD074604E0FFF7DEFD79
:10086000C01B02280FD8686A8007F7D571484FF47B
:10087000FA510068B0FBF1F0009000BF0098411EF3
:100880000091FAD20EE080E0C0F80080FFF7C6FDCC
:10089000074604E0FFF7C2FDC01B022875D8686A4E
:1008A0008007F7D42078400760D5E8690027C000AA
:1008B00008D4E86940F08050E861E869012700F059
:1008C000805000905C480168C90513D401688346D4
:1008D00041F480710160FFF7A1FD824606E000BF90
:1008E000FFF79CFDA0EB0A0064284ED8DBF800005F
:1008F000C005F5D5E06801280AD008B1052813D055
:10090000286A20F001002862286A20F0040002E032
:10091000286A40F001002862E06841F2883B98B103
:10092000FFF77CFD82460BE0286A40F00400286255
:10093000EEE700BFFFF772FDA0EB0A0159455AD858
:10094000286A8007F6D50CE0FFF768FD824605E0CF
:10095000FFF764FDA0EB0A0159454CD8286A8007CF
:10096000F6D41FB1E86920F08050E861E06988B3EF
:100970006968C1F38101022944D00228C6F8608069
:1009800004D0FFF74BFD044638E034E0FFF746FDA6
:10099000074604E0FFF742FDC01B02282BD8286859
:1009A0008001F7D4206AB0F5803F05D16868A1685E
:1009B00020F4003008436860D4E9080108436968FE
:1009C00021F4741108436860C6F86090FFF726FDB3
:1009D000044606E025E000BFFFF720FD001B0228CB
:1009E00009D828688001F7D51BE000BFFFF716FD86
:1009F000001B022802D90320BDE8F88F2868800177
:100A0000F4D40EE00128F7D06868226A00F480313F
:100A1000914204D1616A00F47010884201D0012033
:100A2000EAE70020E8E70000001002400000424230
:100A3000800442420C0000200070004070B50400A9
:100A400009D0606A002540B125616561A56294F80E
:100A5000510040B10CE0012070BD6068B0F5827FAC
:100A6000F4D0E561F2E784F85050204600F040F8F9
:100A7000022084F851002068016821F040010160E3
:100A8000A088218900F4827001F404410843A189FF
:100A900001F400610843217C01F002010843217D3B
:100AA00001F001010843218B01F400710843217F0B
:100AB00001F03801084394F8201001F08001084348
:100AC000218D01F40051084321680860A0690421C8
:100AD00001EA1040216848602068C16921F4006182
:100AE000C1616565012084F85100002070BD0000DF
:100AF00070B586B0002400940194029403940068B9
:100B0000204988423BD12048816941F4805181616C
:100B1000816901F480510491816941F0040181618E
:100B2000816901F004010491816941F0080181614A
:100B30008069022500F0080004904FF40040CDE9E0
:100B400000050326694603961048FFF771FB28202D
:100B5000CDE900050E4D694603962846FFF768FB70
:100B60001020CDE90004694628460294FFF760FB97
:100B70000848416841F0E06141F00101416006B080
:100B800070BD00000030014000100240000801402C
:100B9000000C0140000001402DE9F84F044690F898
:100BA000500000270A9E1D4692468B464FF00109D1
:100BB00001280ED0012084F85000FFF72FFC80465A
:100BC00094F85100616801280CD0B1F5827F07D1FB
:100BD00002E00220BDE8F88FA16809B9042801D01D
:100BE0000227C2E0BBF1000F27D0BAF1000F24D0DA
:100BF0001DB394F85100042802D0052084F8510058
:100C000000206065C4F838A0E587A587C4F830B037
:100C1000E586A5862064606420680168490603D4DF
:100C2000016841F040010160E068B0F5006F606864
:100C300005D0E8B3012D46D07FE0012795E008B14B
:100C4000012D39D1206B21680088C860206B801C81
:100C50002063E08E401EE0862EE0206881688907D0
:100C60000FD5E18E69B1B9F1010F0AD1216B098865
:100C7000C160206B801C2063E08E401EE0864FF038
:100C8000000920688168C9070CD0E18F51B1C068A4
:100C9000A16B0880A06B801CA063E08F401EE087E2
:100CA0004FF00109FFF7BAFBA0EB0800B04200E0EB
:100CB00009E001D3701C50D1E08E0028CDD1E08F27
:100CC0000028CAD13FE0206B216800780873206BB0
:100CD000401C2063E08E401EE0862EE02068816884
:100CE00089070FD5E18E69B1B9F1010F0AD1216BE6
:100CF00009780173206B401C2063E08E401EE08663
:100D00004FF0000920688168C9070CD0E18F51B10C
:100D1000C068A16B0870A06B401CA063E08F401EF0
:100D2000E0874FF00109FFF779FBA0EB0800B04224
:100D300002D3701C01D010E07EB1E08E0028CDD12E
:100D4000E08F0028CAD142463146204600F0E7F93C
:100D500028B101272020606507E0032705E0A0688F
:100D600018B92068C16880680090012084F851009B
:100D7000002084F8500038462CE710B5401EB0F132
:100D8000807F01D3012010BD4FF0E02460610F216E
:100D9000601700F003FB0020A06107202061002005
:100DA00010BD70B5040004D094F83D00002510B1CA
:100DB00006E0012070BD84F83C50204600F022F887
:100DC000242084F83D002068C16821F40051C160EE
:100DD000204600F043FA2068016921F49041016146
:100DE0002068416921F02A0141612068C16841F40D
:100DF0000051C1602564202084F83D0084F83E0045
:100E0000002070BD30B585B0002400940194029498
:100E100003940068174988422AD11748816941F430
:100E200080418161816901F480410491816941F0CF
:100E3000080181618069114D00F008000490402094
:100E40000090022001900320039069462846FFF796
:100E5000EFF98020CDE90004694628460294FFF7A7
:100E6000E7F90748416841F0E06141F00401416061
:100E700005B030BD0038014000100240000C0140B8
:100E8000000001402DE9F843044690F83D001F465C
:100E900016460D4620284CD1C5B1BEB194F83C0091
:100EA000012846D0012084F83C004FF00008C4F827
:100EB0004080212084F83D00FFF7B0FAA6848146E7
:100EC000E684A068B0F5805F03D004E00120BDE8AF
:100ED000F883206928B12E465FF0000584F83C8035
:100EE0000EE00026FAE78021204600F013FAA0B9B0
:100EF000AEB116F8010B21684860E08C401EE0841A
:100F0000E08C4B464FF0000200970028EBD14FF0E9
:100F10004001204600F0FEF930B10320D7E735F854
:100F2000020BC0F30800E6E7202084F83D00002013
:100F3000CDE70220CBE7FEE710B500F017F8064931
:100F4000881D4A8802800A7922B1002242714979BB
:100F5000817110BD0122F9E71000002010B500F0EA
:100F600051F8BDE81040FFF7E7BF00002DE9FE4350
:100F70004FF40340ADF8040000254FF404406F1E09
:100F80001E4CADF806000DF104080DF1080901260C
:100F9000012302AA01A91A480097FFF7FDFD0123CA
:100FA00009F1020208F1020115480097FFF7F4FD6C
:100FB000BDF80800BDF80A20C0B260F31F2200216E
:100FC0002280084606FA00F31A4201D0491CC9B231
:100FD000401CC0B21028F5D3C80707D000206D1CF4
:100FE000EDB26071032DD3D3BDE8FE836671C2F309
:100FF0008D00608002F002002071F5E710000020F3
:101000002400002002480021018041807047000038
:101010001000002070B586B000241C480094019494
:1010200002940394816941F010018161816901F0AA
:1010300010010491816941F020018161816901F011
:1010400020010491816941F004018161816901F00D
:1010500004010491816941F00801816180690C4EAD
:1010600000F008004FF44045049001222946304624
:10107000FFF7CEF901200095CDE90104022003908D
:1010800069463046FFF7D4F806B070BD0010024044
:1010900000100140114810B50F4901604FF48271F2
:1010A000416000214FF40062C0E902120222026195
:1010B00001224261920482611822C0E90721416243
:1010C00081620A21C162FFF7B9FC002803D0BDE8A4
:1010D0001040FFF799B810BD0030014024000020F7
:1010E0000C4810B50A4901604FF4E131416000211C
:1010F00081600C22C160C0E904128161C161FFF707
:1011000050FE002803D0BDE81040FFF77DB810BDA9
:10111000003801407C000020FEE7FEE7704738B54C
:101120000B46009204460022802100F009F80028B6
:1011300004D0606D40F020006065032038BD0000E1
:101140002DE9F8431E46914688460446089DFFF760
:1011500065F9401B351AFFF761F907462548006815
:10116000C0F3CB30684338E0701C37D0FFF756F936
:10117000C01BA84203D215B1009860B32CE02068D0
:10118000416821F0E00141606068B0F5827F0BD1D9
:10119000A068B0F5004F02D0B0F5806F04D1206890
:1011A000016821F040010160A06AB0F5005F09D13B
:1011B0002068016821F4005101602068016841F451
:1011C00000510160012084F85100002084F8500093
:1011D0000320BDE8F8830025401E00902068816848
:1011E00038EA010004D000214945BDD10020F0E7D4
:1011F0000121F9E70C0000207047FFF715B930B561
:101200008FB028216846FEF796FF14210AA8FEF742
:1012100092FF01210804CDE9001000240294022568
:101220000491CDE90750000109906846FFF776FA6E
:1012300008B172B6FEE70F20CDE90A054FF48060D1
:10124000CDE90C4002210AA80E94FFF777F9002897
:1012500001D072B6FEE70FB030BD704770B50446DE
:1012600000680169E26821F440511143016121697C
:10127000A0680843616908432168CA6841F20C63A9
:101280009A430243CA6020684169A26921F440710F
:10129000114341611E492068884202D1FFF7F4F9E9
:1012A00001E0FFF7E1F900EBC00101EB001260681B
:1012B00064218000B2FBF0F3B3FBF1F36FF018068A
:1012C0007343B2FBF0F5B2FBF0F605EB8305322376
:1012D00003EB0515B5FBF1F5B6FBF1F605F0F005EE
:1012E00005EB0615B2FBF0F6B2FBF0F0B0FBF1F047
:1012F0006FF01802504306EB800003EB0010B0FBC8
:10130000F1F0216800F00F002844886070BD0000F3
:10131000003801402DE9F041984617460E46044634
:10132000069D1DE0681C1BD02DB1FFF777F8A0EBE0
:101330000800A84214D92068C16821F4D071C160A6
:101340002068416921F001014161202084F83D00BD
:1013500084F83E00002084F83C000320BDE8F081C2
:101360002068006836EA000004D00020B842D9D0D6
:101370000020F3E70120F9E7FEE700000FB4054B7A
:1013800010B503A9044A029800F028F810BC5DF8D3
:1013900014FB000031150008200000200907090E89
:1013A000002804DB00F1E02080F80014704700F012
:1013B0000F0000F1E02080F8141D704702E008C81B
:1013C000121F08C1002AFAD170477047002001E0BF
:1013D00001C1121F002AFBD1704700002DE9FF4F09
:1013E00089B09B460446002506E025280BD05A46C6
:1013F0000B999047641C6D1C20780028F5D10DB026
:101400002846BDE8F08F0027B8460122474900E092
:10141000074314F8013F203B02FA03F00842F7D1DA
:1014200020782E2819D114F8010F47F004072A2834
:101430000ED06FF02F022078A0F1300109290CD8CE
:1014400008EB880102EB410100EB0108641CF2E7A4
:101450000A98641C50F8048B0A9020780028CED09B
:10146000642808D0692806D075281ED05A460B99E2
:1014700090476D1C58E00A994FF00A0901C90A917A
:10148000002802DA40422D2102E0390504D52B2143
:101490008DF82010012103E0F90704D02021F7E79F
:1014A0008A4608AE0DE00021FAE70A994FF00A09D2
:1014B00001C90A91F7E74946FEF748FE303106F8C0
:1014C000011D0028F7D1ADEB060000F120097807D7
:1014D00001D44FF00108C84502DDA8EB090000E087
:1014E00000208046002706E008A85A46C05D0B99F8
:1014F00090476D1C7F1C5745F6DB04E030205A46B0
:101500000B9990476D1CB8F10001A8F10108F5DCBA
:1015100005E016F8010B5A460B9990476D1CB9F17E
:101520000001A9F10109F4DC641C65E70928010048
:1015300013B54FF6FF73012269460248FFF7A2FC7C
:1015400000981CBD7C000020FEF776FFFFF757FED9
:10155000FFF760FDFFF7C4FDFFF79CFDFEF720FEDF
:10156000FEF72CFEFCE70000000000000000010276
:10157000030406070809000000000102030400003C
:10158000A01500080000002024000000BC13000883
:10159000C4150008240000209C040000CC1300089F
:1015A0000100000010000000000000000024F40012
:1015B000000000000000000000000000000000002B
:0415C0000000000027
:04000005080000ED02
:00000001FF
