:020000040800F2
:10000000D0050020050100087B270008A523000873
:1000100069270008D1070008952D0008000000009E
:100020000000000000000000000000009D28000803
:10003000950A000800000000C1270008D129000827
:100040001F0100081F0100081F0100081F01000810
:100050001F0100081F0100081F0100081F01000800
:100060001F0100081F0100081F0100081F010008F0
:100070001F0100081F0100081F0100081F010008E0
:100080001F0100081F0100081F0100081F010008D0
:100090001F0100081F0100081F0100081F010008C0
:1000A0001F0100081F0100081F0100081F010008B0
:1000B0001F010008352A00081F0100081F01000861
:1000C0001F0100081F0100081F0100081F01000890
:1000D0001F0100081F0100081F0100081F01000880
:1000E0001F0100081F0100081F010008DFF810D0E1
:1000F00000F05CFB00480047652F0008AFF300806C
:10010000D00500200648804706480047FEE7FEE786
:10011000FEE7FEE7FEE7FEE7FEE7FEE7FEE7FEE7B7
:10012000312A0008ED000008202A04DB203A21FAD9
:1001300002F00021704721FA02F3D040C2F1200200
:100140009140084319467047D2B201E000F8012BF4
:10015000491EFBD270470022F6E710B513460A4647
:1001600004461946FFF7F0FF204610BDF0B480EAC0
:100170000102D40F4200B2EB410F02D20246084600
:1001800011464A0042D0C30DDDB2C1F3C752AD1AC9
:10019000202D35DAC1F3160141F4000204B15242B8
:1001A000C5F1200602FA06F12A411044B3EBD05FF4
:1001B00023D0C4B1012DA0EBC35009DCF0BC4FF03B
:1001C000004202EAC352DBB200F5000000F044BA7C
:1001D000400000F1807000EBC350A0F1807040EA55
:1001E000D170490009E0490841EAC071A0EBC35051
:1001F00000F50000400800EBC350F0BC00F023BA4B
:100200006142012202EB4101001BF6E7F0BC70479E
:1002100081F00041AAE780F00040A7E780EA0102F0
:1002200010B502F00043400022D04A001FD0010E5A
:1002300001EB1261C0F35600C2F3560240F4000015
:1002400042F40002A0FB022000047F39140400D015
:10025000401C50EA124001D44000491EC2B20C06B4
:1002600004EBD010401C4008802A02D003E000209C
:1002700010BD20F00100002900DA0020184310BD55
:100280002DE9FE4F804681EA0300C00F0C46009026
:1002900021F0004123F00045B8EB0200A94105D24E
:1002A0004046214690461C460B46024623F000403D
:1002B000104347D0270DC7F30A00C3F30A51029039
:1002C000401A019040286BDAC3F3130040F4801BFE
:1002D0000098924620B10023D2EB030A63EB0B0B8C
:1002E00001985946C0F14002504600F08BF906468D
:1002F0000D4650465946019A00F093F910EB08005C
:100300006141002487EA115284EAE7731A4340D01E
:10031000009A62B3019A012A4FEA075215DC001BCA
:1003200061EB02014FF0004202EA0752CDE90042C0
:10033000001C41F5801132462B4600F0E8F903B06D
:10034000BDE8F08F40462146F9E7001B61EB020152
:10035000001C41F5801300185B412018A2F500171E
:1003600047EB030140EAD570B6196D4111E06D0805
:100370004FEA360645EAC0754FEA0752001B61EBAB
:100380000201001C41F5801149084FEA30000019B4
:10039000514132462B4603B0BDE8F04F00F0A8B9FA
:1003A0000098012240000023D0EB020263EBE073CF
:1003B000009821464FEAE074B8EB000061EB0401BD
:1003C000E9E783F000435BE781F0004158E72DE95E
:1003D000FE4F81EA030404F0004421F00041009440
:1003E0004FF0000B23F0004350EA01045ED052EAC4
:1003F00003045BD0C3F30A54C1F30A552C44A4F29E
:10040000F3340194A0FB0254C1F3130141F48011B1
:10041000C3F3130343F4801301FB024400FB034EB8
:10042000840A970A44EA815447EA8357A4FB076881
:1004300002958D0A05FB07854FEA932C04FB0C54AB
:100440002705029D4FEA065847EA1637B5EB08051F
:100450006EEB070C870E920E47EA811742EA831271
:10046000A7FB0201B6EB0B0164EB00042B0D43EA82
:100470000C335E1844EB1C50DA465146E7FB020190
:10048000C5F313044FEA0B3343EA14534FEA043223
:10049000019C43EA0603A4F10C040294009CCDE9FC
:1004A00000B400F034F903B0BDE8F08F002001463D
:1004B000F9E770B521F0004303430CD0C1F30A55AE
:1004C0000024D5EB040564EB0403D617AD1AB34141
:1004D00002DB0020014670BD201841EB025170BDC7
:1004E00096230022114600F0B7B80EB5C10F80EA7E
:1004F000E0700844CA07002140F233438DE80E0043
:100500000A460B4600F003F903B000BD00F00042BC
:1005100020F00040C10DC0F3160040F400007F2918
:1005200001DA00207047962903DCC1F19601C8402A
:1005300001E096398840002AF4D04042704720F00C
:100540000040C10DC0F3160040F400007F2901DA1D
:1005500000207047962903DCC1F19601C84070471E
:1005600096398840704700F0004230F000400AD0D1
:10057000C10D01F56071C0F3160042EA0151C208D5
:1005800040071143704700200146704701F00043C7
:1005900030B421F0004150EA010206D00A0DA2F564
:1005A0006072C1F31301002A02DC30BC00207047E6
:1005B000440F44EAC104C100E01830BC00EBC25053
:1005C00000F041B8002801DBC0F10040002901DB48
:1005D000C1F100418142704730B50B460146002011
:1005E0002022012409E021FA02F59D4205D303FAF5
:1005F00002F5491B04FA02F52844151EA2F1010276
:10060000F1DC30BD202A04DB203A00FA02F10020A0
:1006100070479140C2F1200320FA03F31943904040
:100620007047202A06DBCB17203A41FA02F043EA52
:10063000E07306E041FA02F3D040C2F1200291409B
:100640000843194670470029A8BF7047401C49005D
:1006500008BF20F00100704710B4B0FA80FC00FA27
:100660000CF050EA010404BF10BC704749B1CCF152
:10067000200421FA04F411FA0CF118BF01212143DE
:100680000843A3EB0C01CB1D4FEA00614FEA102099
:1006900042BF002010BC704700EBC350104400293B
:1006A000A4BF10BC7047401C490008BF20F00100E7
:1006B00010BC704710B541000CD0C0F3C75196294B
:1006C00008DC7E2909DC06DB410204D000F0004092
:1006D00040F07E5010BD002010BDC1F19604C4F161
:1006E000200100FA01F1E040FFF7ADFFA04010BD8E
:1006F00010B5141E73F1000408DA401C41F100012A
:1007000092185B411A4301D120F0010010BD2DE980
:10071000F04D92469B4611B1B1FA81F202E0B0FA77
:1007200080F220329046FFF76DFF04460F4640EA04
:100730000A0041EA0B0153465A46084313D01146BA
:1007400053EA010019D0C8F140025046FFF7ECFC13
:1007500005460E46504659464246FFF753FF0843AA
:1007600005D0012004E020463946BDE8F08D002088
:10077000054346EAE0762C4337430A986305E40ACA
:10078000A0EB08000022FD0A44EA47540A3002D5D3
:1007900000200146E9E7010510196941DDE9084536
:1007A00000196941BDE8F04DA2E70000064C074D75
:1007B00006E0E06840F0010394E807009847103431
:1007C000AC42F6D3FFF796FC58680008786800083A
:1007D000FEE700002DE9F04F4FF000099149ADF51B
:1007E0004B7DCA4681F800905021484601F084FDB7
:1007F0008D4D0024E86880F40040E860C82000F0D7
:100800004DFA641CE4B2062CF4D30025002701F055
:10081000F9FD864C0A20B4F8008000F03FFA00266B
:100820004FEA040B01F0EEFDBBF80040A4EB08001A
:1008300010F5005F02DA04F5804404E0B0F5005FD3
:1008400001DDA4F58044214679A002F0A5FA2744F1
:100850000A2000F023FA761CF6B2A0460A2EE1D355
:100860000A2097FBF0F0B0F5804F02DDA0F5804044
:1008700003E0002801DA00F580406C464DF82500C1
:1008800001F07CFF032000F009FA6D1CADB2C82D09
:10089000BCD36A4900200A6810640968C863684EBE
:1008A000C827431C3946B3FBF1F2B0FBF7F507FB51
:1008B000123207FB150154F8222054F82110B346D8
:1008C000511AB846594502DA01F5804105E043F670
:1008D0009822914201DDA1F5804100220EE05DF8F1
:1008E00020506C4615444FEAE57C05EB9C4C6FF3B9
:1008F0000D0C654501D181469246521C8A42EEDBC1
:10090000D8B2C828CDD34F4802F014F84D4802F0B1
:1009100009F809F1C9004FF4C8174C46C99063E0C3
:10092000621C404692FBF0F108FB11225DF8223078
:1009300094FBF8F208FB12405DF820001D1A5D459B
:1009400001DA05F580454C4518D1564613E0700391
:1009500090FBF5F000EB443090FBF7F107FB110042
:10096000642190FBF1F0ADF820030122C8A93548BD
:1009700002F00CF8761CAE42E9DB33E009F1C80066
:1009800084424FF0000614D02AE0700390FBF5F08B
:1009900000EB443191FBF7F007FB1010642190FB52
:1009A000F1F0ADF820030122C8A9264801F0EEFFBE
:1009B000761C5645E9DB15E0700390FBF5F000EB83
:1009C000443090FBF7F107FB1101642091FBF0F03C
:1009D000ADF820030122C8A91A4801F0D7FF761C00
:1009E000AE42E9DBC998641C844299DB154801F0EA
:1009F000CBFF15A002F0D0F901F0E0FC0B48007924
:100A000030B116A002F0C8F90DF54B7DBDE8F08FAE
:100A10004FF47A7418A002F0BFF9204600F03EF9B6
:100A2000F8E70000100000200010014062000020E4
:100A3000616E676C653A25640D0A0000D8000020DD
:100A400068C5FFFF6C00002043616C6920436F6D37
:100A5000706C65746564210D0A000000656E636F3B
:100A600064657220646174612069732076616C69C9
:100A700064210D0A00000000656E636F64657220DA
:100A80006461746120697320696E76616C696421A8
:100A90000D0A00007047000010B5642000F0FEF859
:100AA00001F082FC01F0C6FC0848007908B108A0FA
:100AB00000E00EA002F070F901F010FC01F0F0FE71
:100AC000BDE81040104800F0E7BF000062000020C1
:100AD000656E636F64657220646174612069732060
:100AE00076616C6964210D0A00000000656E636F19
:100AF000646572206461746120697320696E766137
:100B00006C6964210D0A0000200100202DE9F041EC
:100B10000A2000F0C3F8174F4FF400452946384625
:100B200000F070FA144E154C68B9142000F0B6F8B5
:100B30002946384600F066FA0028F9D03146606947
:100B4000FFF714FB60610E4D0421284600F05AFAAD
:100B500000280DD1142000F0A1F80421284600F04F
:100B600051FA0028F9D031466069FFF751FB606106
:100B7000BDE8F0810008014000004843100000205B
:100B8000000C014072B6FEE706490020C861064825
:100B9000016941F004010161016941F04001016115
:100BA00070470000B001002000200240064A0021EA
:100BB000D16106490A6942F002020A614861086986
:100BC00040F0400008617047B00100200020024062
:100BD000044B0022DA61044A136943F001031361F4
:100BE00001807047B001002000200240144800221C
:100BF000C168CB06134904D5CA6942F00202CA6132
:100C00001022C3685B0705D5CB6943F00103CB61B4
:100C100042F00402C369DB0707D0CB6943F0040349
:100C2000CB61C16921F00101C161A2F58071013977
:100C300001D0C2607047C16921F00101C1617047F4
:100C400000200240B001002070B5054600F0E4F934
:100C50000646114C09E0681C07D025B100F0DCF90C
:100C6000801BA84201D9032070BDE068C007F2D103
:100C7000E068800601D52020E060E068C00605D469
:100C8000E069C00702D1E068400703D5FFF7AEFF77
:100C9000012070BD002070BD0020024070B50446E8
:100CA00000F0BAF90546601C02D0044800780444FC
:100CB00000F0B2F9401BA042FAD370BD0000002042
:100CC0002DE9F047054626480F460126017E0129F9
:100CD0000FD00121814601762868DFF888804CF228
:100CE0005034022808D0A2462046FFF7ADFFA8B135
:100CF00031E00220BDE8F0872046FFF7A5FF08BBE2
:100D00000120FFF741FF2046FFF79EFFD8F81010A3
:100D1000064621F00401C8F810101CE04FF0FF3027
:100D20003860AC6811E02046FFF740FF5046FFF7FF
:100D30008BFFD8F81010060021F00201C8F810103F
:100D400001D03C6007E004F58064D5E9020100EBC6
:100D50008120A042E7D8002189F818103046C9E761
:100D6000B0010020002002400348016941F08001E9
:100D70000161002070470000002002402DE9F05F73
:100D800007461C4888460024017E15461E46012958
:100D900009D00121814601764CF2503A5046FFF7C6
:100DA00053FF18B122E00220BDE8F09F012F02D0CE
:100DB000022F00D00427D346DFF83CA022012846AA
:100DC0003146FFF7B1F981B208EB4400FFF700FFAD
:100DD0005846FFF739FFDAF8102022F00102CAF86E
:100DE000102018B9641CE4B2BC42E7D3002289F891
:100DF0001820D9E7B0010020002002400649002059
:100E00000A69120607D5054A4A60054A4A60096917
:100E1000090600D5012070470020024023016745E4
:100E2000AB89EFCD2DE9F84FDFF8B891002409F137
:100E3000040A0AF1040B23460F270BF1040EC9E044
:100E40000125A5402A40AA427DD1674ED1F804C0B1
:100E5000ACEB0608B44532D014DCBCF1030F3AD039
:100E600009DCBCF1000F2AD0BCF1010F1CD0BCF191
:100E7000020F31D11DE0BCF1110F17D0BCF1120FE0
:100E80002AD119E0B8F5881F19D006DCB8F5803FE3
:100E900015D0B8F5801F1FD111E0B8F5001F0ED096
:100EA000B8F5041F18D10AE0CB6815E0CB681B1D0C
:100EB00012E0CB6808330FE0CB680C330CE08B6892
:100EC0002BB1012B4FF0080303D0456104E004234C
:100ED00002E0056100E00023FF2A01D8064601E098
:100EE00000F104064FEA840501D9A5F12005D6F8E2
:100EF000008007FA05FC28EA0C0803FA05F548EA21
:100F00000508C6F800804D68ED0062D5374DAE6922
:100F100046F00106AE61AD6924F0030605F0010557
:100F20000095334D06EB050CDCF80850A607360F8C
:100F300007FA06F825EA0805DFF8B880404503D12E
:100F40004FF0000817E044E0DFF8AC80404502D1E4
:100F50004FF001080FE0DFF8A480404502D14FF0C8
:100F6000020808E0DFF89880404502D14FF00308FE
:100F700001E04FF0040808FA06F848EA0508CCF842
:100F800008804D68D9F80060ED034D4601D5164341
:100F900000E096432E604D68DAF80060AD035546D8
:100FA00001D5164300E096432E604D68DBF80060E3
:100FB000ED025D4601D5164300E096432E604D6874
:100FC000DEF80060AD02754601D5164300E0964399
:100FD0002E60641C0D682A46E5407FF431AFBDE801
:100FE000F88F0000000401400000111000100240C2
:100FF0000000014000080140000C014000100140C9
:10100000001401408068084000D0012070470AB1F8
:10101000016170470904FBE70148806870470000E0
:101020000000002002488168027811448160704706
:1010300000000020074810B5016841F01001016070
:10104000032000F075F80F2000F006F800F024F8F7
:10105000002010BD0020024070B50D4D04464FF435
:101060007A712878B1FBF0F00A490968B1FBF0F019
:1010700000F07BFC48B9102C07D200222146501EFC
:1010800000F036F800206C6070BD012070BD0000DB
:10109000000000200C0000200C4808B5816941F0D8
:1010A00001018161816901F001010091C16941F093
:1010B0008051C161C06900F08050009004484168CF
:1010C00021F0E06141F00071416008BD0010024074
:1010D00000000140002809DB00F01F0201219140BF
:1010E0004009800000F1E020C0F8001170470000C6
:1010F000F0B40E4B1B680C46C3F30223C3F1070583
:10110000042D00D90425191D072901D2002300E070
:10111000DB1E012606FA05F1491E214099409E403A
:10112000761E16403143F0BC01F046BE0CED00E0E7
:10113000064900F0070208684FF6FF03184040EA2E
:101140000220034A10430860704700000CED00E0E5
:101150000000FA052DE9F0470F46050061D0434E27
:10116000306800F00700B84209D2306820F007006C
:1011700038433060306800F00700B84251D1286829
:101180003B4C810712D5400703D5606840F4E0600E
:1011900060602878000703D5606840F460506060A4
:1011A0006068A96820F0F000084360602878C007F4
:1011B00028D06868012810D02168022810D089073B
:1011C00000292EDA616821F0030101436160FFF715
:1011D00023FF804641F288390DE021688903EFE75B
:1011E0008901EDE7FFF718FFA0EB0801494502D997
:1011F0000320BDE8F0876068696800F00C00B0EB80
:10120000810FEFD1306800F00700B8420BD9306889
:1012100020F0070038433060306800F00700B84223
:1012200001D00120E5E72878400705D56068E96826
:1012300020F4E060084360602878000706D5606805
:10124000296920F4605040EAC100606000F038F87D
:101250006168084AC1F30311515CC840064908603F
:1012600006480068FFF7F8FE0020C2E700200240B1
:1012700000100240FC2F00080C0000200400002099
:101280000448054900684968044AC1F30221515CD9
:10129000C84070470C000020001002400C300008CD
:1012A0000448054900684968044AC1F3C221515CF9
:1012B000C84070470C000020001002400C300008AD
:1012C00013A185B00FC98DE80F0015A0154A00685D
:1012D0000490516801F00C00042804D0082804D0C0
:1012E000114805B070471148FBE7C1F38343C903B8
:1012F0001DF8030009D5516804AAC1F34041515CAF
:101300000A4A5043B0FBF1F0EBE709494843E8E7EC
:1013100002030405060708090A0B0C0D0E0F101036
:10132000010200000010024000127A00001BB7000A
:1013300000093D002DE9F84F040070D02078C04D21
:10134000C00749D06868C0F38100012807D06868E9
:10135000C0F38100022809D16868C00306D5286857
:10136000800339D560680028E7D035E06068B0F5C3
:10137000803F0BD010B1B0F5A02F11D0286820F419
:1013800080302860286820F4802002E0286840F43B
:1013900080302860606890B1FFF73EFE06460AE0A4
:1013A000286840F480202860F0E700BFFFF734FE93
:1013B000801B642873D828688003F7D50CE0FFF7FA
:1013C0002BFE064605E000BFFFF726FE801B6428C3
:1013D000F0D828688003F7D420789A4E80074FF021
:1013E00001094FF0000839D5686810F00C0F07D0DC
:1013F0006868C0F38100022809D16868C00306D478
:101400002868800714D52069012808D110E02069D8
:10141000B0B1C6F80090FFF7FFFD074605E00AE10E
:10142000FFF7FAFDC01B0228C4D828688007F7D54B
:101430002868616920F0F80040EAC10028600DE0EA
:10144000C6F80080FFF7E8FD074604E0FFF7E4FD7B
:10145000C01B022823D828688007F7D4207800070B
:101460002CD57948A169D9B1C0F80090FFF7D4FD17
:10147000074604E0FFF7D0FDC01B02280FD8686ABA
:101480008007F7D571484FF4FA510068B0FBF1F0CE
:10149000009000BF0098411E0091FAD20EE080E05B
:1014A000C0F80080FFF7B8FD074604E0FFF7B4FD81
:1014B000C01B022875D8686A8007F7D420784007D7
:1014C00060D5E8690027C00008D4E86940F0805082
:1014D000E861E869012700F0805000905C480168ED
:1014E000C90513D40168834641F480710160FFF798
:1014F00093FD824606E000BFFFF78EFDA0EB0A00D9
:1015000064284ED8DBF80000C005F5D5E068012856
:101510000AD008B1052813D0286A20F001002862FB
:10152000286A20F0040002E0286A40F001002862E6
:10153000E06841F2883B98B1FFF76EFD82460BE010
:10154000286A40F004002862EEE700BFFFF764FD60
:10155000A0EB0A0159455AD8286A8007F6D50CE055
:10156000FFF75AFD824605E0FFF756FDA0EB0A01A2
:1015700059454CD8286A8007F6D41FB1E86920F095
:101580008050E861E06988B36968C1F3810102298C
:1015900044D00228C6F8608004D0FFF73DFD044621
:1015A00038E034E0FFF738FD074604E0FFF734FD8C
:1015B000C01B02282BD828688001F7D4206AB0F518
:1015C000803F05D16868A16820F400300843686056
:1015D000D4E908010843696821F47411084368607C
:1015E000C6F86090FFF718FD044606E025E000BF4E
:1015F000FFF712FD001B022809D828688001F7D5E3
:101600001BE000BFFFF708FD001B022802D90320E2
:10161000BDE8F88F28688001F4D40EE00128F7D0E7
:101620006868226A00F48031914204D1616A00F452
:101630007010884201D00120EAE70020E8E70000AE
:101640000010024000004242800442420C00002090
:101650000070004070B5040009D0606A002540B1F8
:1016600025616561A56294F8510040B10CE001204C
:1016700070BD6068B0F5827FF4D0E561F2E784F870
:101680005050204600F040F8022084F851002068B5
:10169000016821F040010160A088218900F4827076
:1016A00001F404410843A18901F400610843217C4D
:1016B00001F002010843217D01F001010843218B63
:1016C00001F400710843217F01F03801084394F8C8
:1016D000201001F080010843218D01F400510843DE
:1016E00021680860A069042101EA1040216848606F
:1016F0002068C16921F40061C1616565012084F839
:101700005100002070BD000030B585B00024009469
:101710000194029403940068174988422AD117481B
:10172000816941F480518161816901F480510491A2
:10173000816941F0080181618069114D00F0080064
:101740000490282000900220019003200390694615
:101750002846FFF767FB1020CDE9000469462846BC
:101760000294FFF75FFB0748416841F0E06141F0F8
:101770000101416005B030BD003001400010024061
:10178000000C0140000001402DE9F84F044690F89C
:10179000500000270A9E1D4692468B464FF00109D5
:1017A00001280ED0012084F85000FFF735FC804658
:1017B00094F85100616801280CD0B1F5827F07D1FF
:1017C00002E00220BDE8F88FA16809B9042801D021
:1017D0000227C2E0BBF1000F27D0BAF1000F24D0DE
:1017E0001DB394F85100042802D0052084F851005C
:1017F00000206065C4F838A0E587A587C4F830B03C
:10180000E586A5862064606420680168490603D4E3
:10181000016841F040010160E068B0F5006F606868
:1018200005D0E8B3012D46D07FE0012795E008B14F
:10183000012D39D1206B21680088C860206B801C85
:101840002063E08E401EE0862EE0206881688907D4
:101850000FD5E18E69B1B9F1010F0AD1216B098869
:10186000C160206B801C2063E08E401EE0864FF03C
:10187000000920688168C9070CD0E18F51B1C068A8
:10188000A16B0880A06B801CA063E08F401EE087E6
:101890004FF00109FFF7C0FBA0EB0800B04200E0E9
:1018A00009E001D3701C50D1E08E0028CDD1E08F2B
:1018B0000028CAD13FE0206B216800780873206BB4
:1018C000401C2063E08E401EE0862EE02068816888
:1018D00089070FD5E18E69B1B9F1010F0AD1216BEA
:1018E00009780173206B401C2063E08E401EE08667
:1018F0004FF0000920688168C9070CD0E18F51B111
:10190000C068A16B0870A06B401CA063E08F401EF4
:10191000E0874FF00109FFF77FFBA0EB0800B04222
:1019200002D3701C01D010E07EB1E08E0028CDD132
:10193000E08F0028CAD142463146204600F041FFE0
:1019400028B101272020606507E0032705E0A06893
:1019500018B92068C16880680090012084F851009F
:10196000002084F8500038462CE710B5401EB0F136
:10197000807F01D3012010BD4FF0E02460610F2172
:10198000601701F019FA0020A061072020610020F3
:1019900010BD70477047000070B590F83C20012AD8
:1019A00026D0012480F83C40022280F83D200368C4
:1019B0005A689D6822F070060A6832435A600D4BDF
:1019C00002689A4208D0B2F1804F05D00A4B9A4281
:1019D00002D00A4B9A4204D1496825F0800319438A
:1019E000916080F83D40002180F83C10084670BDB1
:1019F000022070BD002C014000040040000800409F
:101A000010B5040003D094F83D0010B107E00120A8
:101A100010BD002084F83C00204600F01FF8022092
:101A200084F83D00211D206801F00AF8012084F8A7
:101A3000460084F83E0084F83F0084F8400084F8B3
:101A4000410084F8420084F8430084F8440084F89C
:101A5000450084F83D00002010BD000008B5006876
:101A60000B49884212D10B48C16941F00201C161A2
:101A7000C069002200F00200009011461D20FFF70F
:101A800037FBBDE808401D20FFF724BB08BD000060
:101A9000000400400010024090F83D10012901D0E0
:101AA00001207047022180F83D100168CA6842F0A9
:101AB0000102CA6000680B49884208D0B0F1804F2B
:101AC00005D00949884202D00849884204D181687A
:101AD00001F00701062903D0016841F0010101600E
:101AE00000207047002C0140000400400008004026
:101AF00070B5044690F83C00012817D0012584F801
:101B00003C50022084F83D002068826822F0770271
:101B100022F47F4282600868502830D00DDC2028F3
:101B20004DD005DC98B310283BD148E0022070BDB1
:101B3000302844D0402834D139E0602828D070289B
:101B400006D0B0F5805F2CD0B0F5005F29D10AE057
:101B5000CB68D1E90121206800F0B5FF20688168D9
:101B600041F0770109E0CB68D1E90121206800F05C
:101B7000AAFF2068816841F48041816011E0CA6851
:101B80004968206801F054F85021206807E016E009
:101B9000CA684968206801F05CF86021206800F09C
:101BA0009CFF84F83D50002084F83C0070BDCA685A
:101BB0004968206801F03CF840212068EFE722687E
:101BC00001461046EBE7704770B5044600680169AE
:101BD0004FF00005C943890715D4C168C943890777
:101BE00011D4E91E016101202077206880698007F7
:101BF000204602D0FFF7E7FF04E000F0C9F82046D6
:101C000000F06AF9257720680169C943490717D4AC
:101C1000C168C943490713D46FF004010161022070
:101C200020772068806910F4407F204602D0FFF7BB
:101C3000CAFF04E000F0ACF8204600F04DF925772B
:101C400020680169C943090716D4C168C943090757
:101C500012D46FF008010161042020772068C06968
:101C60008007204602D0FFF7AEFF04E000F090F8B6
:101C7000204600F031F9257720680169C943C9067B
:101C800017D4C168C943C90613D46FF010010161AC
:101C9000082020772068C06910F4407F204602D0D9
:101CA000FFF791FF04E000F073F8204600F014F90C
:101CB000257720680169C943C90708D1C168C943AC
:101CC000C90704D1891E0161204600F055F920683A
:101CD0000169C943090609D4C168C943090605D485
:101CE0006FF0800101612046FFF753FE2068016913
:101CF000C943490609D4C168C943490605D46FF0F0
:101D000040010161204600F01DFA20680169C943C5
:101D100089060BD4C168C943890607D46FF0200136
:101D200001612046BDE87040FFF734BE70BD000081
:101D300000B585B0002100910191029103910068E6
:101D4000B0F1804F1BD10F48816941F008018161DA
:101D50008069694600F0080004904FF440600090EC
:101D60000220019003900848FFF75CF8074841689B
:101D700021F4407141F0E06141F40071416005B02F
:101D800000BD000000100240000C014000000140B6
:101D9000704770B5044690F83C000D4601280AD003
:101DA000012084F83C0042B1042A18D0082A2AD025
:101DB0000C2A4DD139E0022070BD206800F096FE5B
:101DC0002068816941F0080181612068816921F002
:101DD00004018161206881692A69114311E020684A
:101DE00000F0ACFE2068816941F4006181612068E7
:101DF000816921F480618161206881692A6941EAF1
:101E00000221816124E0206800F0C4FE2068C169DD
:101E100041F00801C1612068C16921F00401C1617C
:101E20002068C1692A69114311E0206800F0DEFED4
:101E30002068C16941F40061C1612068C16921F471
:101E40008061C1612068C1692A6941EA0221C161DA
:101E5000002084F83C0070BD10B5040003D094F855
:101E60003D0010B107E0012010BD002084F83C00C7
:101E7000204600F01FF8022084F83D00211D206854
:101E800000F0DEFD012084F8460084F83E0084F86E
:101E90003F0084F8400084F8410084F8420084F850
:101EA000430084F8440084F8450084F83D00002095
:101EB00010BD000008B50068B0F1804F08D105489A
:101EC000C16941F00101C161C06900F001000090E9
:101ED00008BD0000001002407047000010B5044625
:101EE000022249B104290ED0082913D094F84100E8
:101EF000012816D0012010BD94F83E000128F9D128
:101F000084F83E200FE094F83F000128F2D184F8D5
:101F10003F2008E094F840000128EBD184F84020ED
:101F200001E084F841200122206800F0BFFD0F4944
:101F30002068884203D1426C42F400424264206827
:101F4000884208D0B0F1804F05D00949884202D0BC
:101F50000849884204D1816801F00701062903D0AD
:101F6000016841F001010160002010BD002C01401A
:101F700000040040000800402DE9F0470068644973
:101F800088427CD1634C6078012878D1A078012800
:101F90000FD0D4E90501FEF715FB71D1A0884FF4ED
:101FA0007A71401C80B2A08088426AD3A1800F2140
:101FB000A7E000F027FA58484088FEF791FAFEF7AC
:101FC000D2FA564D00222B46FEF701FA6FF00D02B1
:101FD000FEF76FFAFEF7DAFAE0618046216AFEF753
:101FE00017F94F49884202DDE06A401E04E04D497E
:101FF0008842E06A01D9401CE062FEF776FA0022CE
:102000002B46FEF7E4F905460E464046FEF7ABFACE
:102010002A463346FEF734F9FEF7B8FA074601467A
:1020200060626069FEF7F4F83F4A40490546206364
:10203000904202DC3E48854202D34FF0004001E06E
:102040004FF4004008612946E068FEF7E7F8616B4D
:10205000FEF78CF8374E6063B04201DD666303E043
:102060003549884200D961633846A16AFEF7D0F845
:10207000814632492069FEF7D1F8494602E045E041
:102080003CE03DE0FEF7CAF881462D49A06BFEF723
:10209000C5F84946FEF7BCF88146A0632946A0680A
:1020A000FEF7BCF8616BFEF761F84946FEF75EF893
:1020B000C4F82080A7620546E063B0F5000F4FF03A
:1020C0007F51404604DBFEF751F8E061E06B05E02C
:1020D000FEF79EF8E06185F00040E063B04200DD6D
:1020E000E663E06B00F051FFFEF729FAC1B2E06948
:1020F000BDE8F04780F0004000F0FEB80020A0806E
:102100001E21606900F0F8F86069A061BDE8F08701
:102110000004004010000020620000200080764093
:1021200000003443000034C36666E63F00100140FF
:102130006666E6BF00007042000070C2508D173D19
:102140002B87763F704770B5040004D094F83D00AB
:10215000002510B106E0012070BD84F83C502046F7
:1021600000F022F8242084F83D002068C16821F4A2
:102170000051C160204600F07FFD2068016921F414
:10218000904101612068416921F02A014161206884
:10219000C16841F40051C1602564202084F83D00ED
:1021A00084F83E00002070BD30B585B00024009456
:1021B0000194029403940068174988422AD1174871
:1021C000816941F480418161816901F48041049118
:1021D000816941F0080181618069114D00F00800BA
:1021E0000490402000900220019003200390694653
:1021F0002846FEF717FE8020CDE9000469462846F0
:102200000294FEF70FFE0748416841F0E06141F09B
:102210000401416005B030BD0038014000100240AB
:10222000000C0140000001402DE9F843044690F8FD
:102230003D001F4616460D4620284CD1C5B1BEB103
:1022400094F83C00012846D0012084F83C004FF06F
:102250000008C4F84080212084F83D00FEF7DCFE31
:10226000A6848146E684A068B0F5805F03D004E0D0
:102270000120BDE8F883206928B12E465FF00005F3
:1022800084F83C800EE00026FAE78021204600F02A
:102290004FFDA0B9AEB116F8010B21684860E08C83
:1022A000401EE084E08C4B464FF00002009700286F
:1022B000EBD14FF04001204600F03AFD30B1032051
:1022C000D7E735F8020BC0F30800E6E7202084F8D2
:1022D0003D000020CDE70220CBE7000010B50C2127
:1022E0000448FFF7FBFDBDE8104008210148FFF757
:1022F000F5BD0000D80000202DE9F0410C46244A2D
:1023000001461046FDF78AFF0546FEF7FFF84FF439
:102310006167394600F029FA06B228461D49FDF7E3
:1023200025FFFEF7F3F8394600F01FFA01B21A480C
:102330001B4B4FF0200530F8262030F8210012B258
:1023400001B204FB02F004FB01F44FEAA421134A9A
:1023500080124FF01006A3F1040404D41768386407
:102360001D60266004E017684042386425601E60E6
:1023700008200425002905DB1268D16320601D6058
:10238000BDE8F08112684942D16318602560F7E723
:102390000000FA430000614414300008D800002017
:1023A00014080140FEE7000003484FF0804101613E
:1023B000C9130161704700000010014070B50D4C59
:1023C000012000212071A4F10A004FF6FF7200687D
:1023D0004FF4804330F81150954205D106A000F02B
:1023E000DBFC0020207170BD491C89B29942F1D3F9
:1023F00070BD0000620000206572726F723A256441
:102400000D0A000010B500F01FF80948811D428830
:10241000031F0A801B6833F812204A80027922B118
:1024200000224A714079887110BD0122F9E700004D
:102430005C00002010B500F065F8FFF7E3FFBDE891
:102440001040FFF7BBBF00002DE9FE4F4FF40340E3
:10245000ADF80400284E4FF404400025DFF89C90AE
:10246000ADF806004FF480546F1EA6F1040B4FF038
:10247000010A3460012302AA01A921480097FFF74D
:1024800083F9D846CBF8004034600DF10A020123ED
:10249000111F1B480097FFF777F9C8F80040BDF8F7
:1024A0000800BDF80A30C0B260F31F2300214A467D
:1024B000A9F800300846D4460CFA00F813EA080FD1
:1024C00001D0491CC9B2401CC0B21028F4D3C807BF
:1024D00008D000206D1CEDB289F80500032DC8D38B
:1024E000BDE8FE8F82F805A0C3F38D01518003F093
:1024F000020189F80410F3E7140C01405C0000208D
:1025000080000020024800210180418070470000C7
:102510005C0000202DE9F04385B00024344800948D
:10252000019402940394816941F0100181618169F1
:1025300001F010010491816941F0200181618169FC
:1025400001F020010491816941F0040181618169F8
:1025500001F004010491816941F008018161806901
:10256000244E00F008004FF4404504900122294613
:102570003046FEF74CFDDFF8809000223C214846B3
:10258000FEF745FD0122DFF8748017033946404607
:10259000FEF73DFD0220CDE9024000950125694688
:1025A00001953046FEF73EFC3C200326CDE90005B0
:1025B000CDE9024669464846FEF734FC04208DE822
:1025C000310069464046FEF72DFC00970396CDE9A1
:1025D000015469464046FEF725FCE8038DE83100CA
:1025E00069464846FEF71EFC05B0BDE8F0830000D2
:1025F000001002400010014000080140000C0140A2
:10260000114810B50F4901604FF4827141600021FB
:102610004FF40062C0E9021202220261012242610B
:10262000520282611022C0E90721416281620A21BF
:10263000C162FFF70FF8002803D0BDE81040FEF795
:10264000A1BA10BD003001408000002010B58AB052
:10265000002407941C2168460894FDF77CFD194866
:102660004FF08041C0E90014FF21C0E9024104613C
:102670008461FFF7F1FB08B1FEF784FA079407A91C
:1026800010480894FFF788F908B1FEF77BFA60203C
:10269000CDE900040294082269460A480494FFF731
:1026A00078FB08B1FEF76EFA0C2269460548FFF781
:1026B00070FB08B1FEF766FA0248FFF739FB0AB073
:1026C00010BD0000D800002010B586B000241748C7
:1026D00000940194029403940494134905940160B6
:1026E0000121C0E9011441F61F41C0E903148461CE
:1026F000FFF786F908B1FEF745FA4FF480500090D5
:1027000069460A48FFF7F4F908B1FEF73BFA04946A
:1027100004A906480594FFF73FF9002801D0FEF709
:1027200031FA06B010BD0000000400402001002076
:102730000C4810B50A4901604FF4E13141600021B5
:1027400081600C22C160C0E904128161C161FFF7A0
:10275000FAFC002803D0BDE81040FEF713BA10BD04
:102760000038014068010020FEE790FBF1F201FB18
:102770001200002800DA08447047FEE70D4810B543
:1027800001460278096C0AB1491C00E0491E016447
:102790000846FDF7AAFE084A084BFDF718FEFDF7AC
:1027A000F5FE5021FFF7A8FDBDE810400A20FEF716
:1027B00075BA000010000020CDCCCCCCCCCCFC3FB6
:1027C000704738B50B46009204460022802100F085
:1027D00009F8002804D0606D40F0200060650320F7
:1027E00038BD00002DE9F8431E4691468846044650
:1027F000089DFEF711FC401B351AFEF70DFC07463D
:1028000025480068C0F3CB30684338E0701C37D0EF
:10281000FEF702FCC01BA84203D215B1009860B3BA
:102820002CE02068416821F0E00141606068B0F56B
:10283000827F0BD1A068B0F5004F02D0B0F5806F59
:1028400004D12068016821F040010160A06AB0F560
:10285000005F09D12068016821F4005101602068FF
:10286000016841F400510160012084F8510000200A
:1028700084F850000320BDE8F8830025401E009036
:102880002068816838EA010004D000214945BDD1A3
:102890000020F0E70121F9E70C000020704700005C
:1028A00070B5FFF7AFFD194E707960B1184D002477
:1028B000E86880F48040E860C820FEF7EFF9641C07
:1028C000E4B2062CF4D304211248FEF79BFB08B9AE
:1028D000FDF780FF114C10486064FFF793FD012065
:1028E000A0707088FDF7FCFDFDF73DFE00220C4B4B
:1028F000FDF76DFD6FF00D02FDF7DBFDFDF746FE08
:102900006061E06120626062A06270BD62000020D0
:1029100000100140000C01406666663D100000207A
:102920000080764010B50446FEF768FA2068E06043
:1029300010BD00002DE9F04385B00546FEF75EFAB4
:10294000002427464FF001084FF0FF390D4E11E0EB
:102950000097286804A900EB8420CDE902086846A6
:10296000FEF7AEF94846FEF76FF9306920F0020035
:102970003061641CA868A042EAD805B0BDE8F04305
:10298000FEF7F2B900200240FEF7EEB92DE9F04162
:102990000F460446C16800681646814216D3626835
:1029A00001EB46011044814210D800250CE000BF25
:1029B00037F8152000230120E168FEF7DFF910B990
:1029C000E068801CE0606D1CB542F1D3BDE8F08189
:1029D000FEF728BB30B58FB028216846FDF7BBFB5A
:1029E00014210AA8FDF7B7FB01210804CDE9001066
:1029F0000024029402250491CDE9075000010990BA
:102A00006846FEF797FC08B172B6FEE70F20CDE9E5
:102A10000A054FF48060CDE90C4002210AA80E940B
:102A2000FEF798FB002801D072B6FEE70FB030BD6C
:102A3000704700000148FFF7C7B8000020010020E0
:102A4000F0B50268164B174C174D4FF0804798426F
:102A500005D0B84203D0A04201D0A84203D122F051
:102A600070064A683243984205D0B84203D0A0426B
:102A700001D0A84203D122F44074CA6822434C69B1
:102A800022F08002224302608A68C2620A6882627F
:102A9000984201D10969016301214161F0BD000043
:102AA000002C0140000400400008004010B501F077
:102AB0001F030121046A99408C430462016A9A4011
:102AC0001143016210BD10B5846842EA032224F468
:102AD0007F440A432243826010BD826822F0700264
:102AE0000A4342F0070181607047000030B5026A76
:102AF00022F001020262026A4368846924F07305CD
:102B00000C682C4322F002058A682A430A4DA84229
:102B10000BD122F00805CA6823F440732A434D699B
:102B200022F004021D438B692B4343608461496892
:102B30004163026230BD0000002C014030B5026AE2
:102B400022F010020262026A436884690D6824F46C
:102B5000E64444EA05248D6822F0200242EA051288
:102B60000B4DA8420ED1CD6822F0800242EA051238
:102B70004D6923F4406343EA85038D6922F04002E6
:102B800043EA85034360846149688163026230BD22
:102B9000002C014030B5026A22F480720262036A9E
:102BA0004268C46923F4007324F073050C682C4355
:102BB0008D6843EA05230C4DA8420ED1CD6823F45D
:102BC000006343EA05234D6922F4405242EA0512AC
:102BD0008D6923F4806342EA05124260C46149684A
:102BE000C163036230BD0000002C014030B5026AB1
:102BF00022F480520262046A4268C3690D6823F4B9
:102C0000E64343EA05238D6824F4005444EA05347E
:102C1000064DA84204D14D6922F4804242EA851251
:102C20004260C36149680164046230BD002C014008
:102C300010B5036A046A24F001040462846924F074
:102C4000F00444EA021423F00A020A438461026297
:102C500010BD10B5036A23F0100303628369046A90
:102C600023F4704343EA023224F0A00343EA011143
:102C70008261016210BD000070B504460068016900
:102C8000E26821F44051114301612169A0680843C1
:102C9000616908432168CA6841F20C639A430243A0
:102CA000CA6020684169A26921F440711143416101
:102CB0001E492068884202D1FEF7F2FA01E0FEF7D1
:102CC000DFFA00EBC00101EB0012606864218000B4
:102CD000B2FBF0F3B3FBF1F36FF018067343B2FBF2
:102CE000F0F5B2FBF0F605EB8305322303EB051597
:102CF000B5FBF1F5B6FBF1F605F0F00505EB0615B1
:102D0000B2FBF0F6B2FBF0F0B0FBF1F06FF018029E
:102D1000504306EB800003EB0010B0FBF1F021689C
:102D200000F00F002844886070BD000000380140AA
:102D30002DE9F041984617460E460446069D1DE0D3
:102D4000681C1BD02DB1FEF767F9A0EB0800A84264
:102D500014D92068C16821F4D071C160206841692C
:102D600021F001014161202084F83D0084F83E00FB
:102D7000002084F83C000320BDE8F0812068006852
:102D800036EA000004D00020B842D9D00020F3E792
:102D90000120F9E7FEE700000FB4054B10B503A9C9
:102DA000044A029800F028F810BC5DF814FB0000FB
:102DB0004D2F00087C0000200907090E002804DBC5
:102DC00000F1E02080F80014704700F00F0000F1DF
:102DD000E02080F8141D704702E008C8121F08C1E7
:102DE000002AFAD170477047002001E001C1121F8C
:102DF000002AFBD1704700002DE9FF4F89B09B46A8
:102E00000446002506E025280BD05A460B9990472A
:102E1000641C6D1C20780028F5D10DB02846BDE853
:102E2000F08F0027B8460122474900E0074314F815
:102E3000013F203B02FA03F00842F7D120782E2808
:102E400019D114F8010F47F004072A280ED06FF0AB
:102E50002F022078A0F1300109290CD808EB880155
:102E600002EB410100EB0108641CF2E70A98641CC4
:102E700050F8048B0A9020780028CED0642808D01F
:102E8000692806D075281ED05A460B9990476D1CAC
:102E900058E00A994FF00A0901C90A91002802DA9C
:102EA00040422D2102E0390504D52B218DF8201058
:102EB000012103E0F90704D02021F7E78A4608AE94
:102EC0000DE00021FAE70A994FF00A0901C90A91B9
:102ED000F7E74946FDF780FB303106F8011D002871
:102EE000F7D1ADEB060000F12009780701D44FF0CF
:102EF0000108C84502DDA8EB090000E0002080467B
:102F0000002706E008A85A46C05D0B9990476D1C43
:102F10007F1C5745F6DB04E030205A460B9990475A
:102F20006D1CB8F10001A8F10108F5DC05E016F808
:102F3000010B5A460B9990476D1CB9F10001A9F19C
:102F40000109F4DC641C65E70928010013B54FF69C
:102F5000FF73012269460248FFF766F900981CBD1D
:102F600068010020FEF766F8FFF734FDFFF7D2FA9C
:102F7000FFF7DEFBFFF744FBFFF768FBFFF7A4FB5F
:102F8000FDF78AFDFDF7C2FDFCE770B50546FDF7CC
:102F900091FB044601462846FDF73AF915F0004F2B
:102FA0004FF07F410ED0B0F13F4F28BFB1EB400F43
:102FB0000ED2B0F17C5F1DDDB1EB400F1AD313E0F0
:102FC000044617E0B0F13F4F08D9B1EB400F05D3ED
:102FD0004FF07E512046FDF71BF9F1E7B0F17C5F21
:102FE00008DBB1EB400F05D34FF07E512046FDF7D3
:102FF000BDF8E5E7284664F31E0070BD0000000040
:103000000000000001020304060708090000000098
:1030100001020304000000000200000004000000A0
:103020000500000007000000090000000B00000080
:103030000D0000000E000000100000001200000053
:103040001400000015000000170000001900000027
:103050001B0000001D0000001E00000020000000FA
:1030600022000000240000002600000027000000CD
:10307000290000002B0000002D0000002E000000A1
:103080003000000032000000340000003600000074
:1030900037000000390000003B0000003D00000048
:1030A0003F0000004000000042000000440000001B
:1030B0004600000047000000490000004B000000EF
:1030C0004D0000004F0000005000000052000000C2
:1030D0005400000056000000570000005900000096
:1030E0005B0000005D0000005F0000006000000069
:1030F000620000006400000066000000670000003D
:10310000690000006B0000006D0000006F0000000F
:1031100070000000720000007400000076000000E3
:1031200077000000790000007B0000007D000000B7
:103130007F0000008000000082000000840000008A
:103140008600000087000000890000008B0000005E
:103150008D0000008F000000900000009200000031
:103160009400000096000000970000009900000005
:103170009B0000009D0000009E000000A0000000D9
:10318000A2000000A4000000A5000000A7000000AD
:10319000A9000000AB000000AD000000AE00000080
:1031A000B0000000B2000000B4000000B500000054
:1031B000B7000000B9000000BB000000BC00000028
:1031C000BE000000C0000000C2000000C3000000FC
:1031D000C5000000C7000000C9000000CA000000D0
:1031E000CC000000CE000000D0000000D1000000A4
:1031F000D3000000D5000000D7000000D800000078
:10320000DA000000DC000000DE000000DF0000004B
:10321000E1000000E3000000E5000000E60000001F
:10322000E8000000EA000000EC000000ED000000F3
:10323000EF000000F1000000F3000000F4000000C7
:10324000F6000000F8000000F9000000FB0000009C
:10325000FD000000FF00000000010000020100006E
:103260000401000006010000070100000901000040
:103270000B0100000C0100000E0100001001000015
:1032800012010000130100001501000017010000E9
:10329000190100001A0100001C0100001E010000BD
:1032A0001F01000021010000230100002501000092
:1032B00026010000280100002A0100002B01000067
:1032C0002D0100002F01000031010000320100003B
:1032D0003401000036010000370100003901000010
:1032E0003B0100003C0100003E01000040010000E5
:1032F00042010000430100004501000047010000B9
:10330000480100004A0100004C0100004D0100008E
:103310004F01000051010000520100005401000063
:103320005601000057010000590100005B01000038
:103330005D0100005E01000060010000620100000C
:1033400063010000650100006701000068010000E2
:103350006A0100006C0100006D0100006F010000B7
:10336000710100007201000074010000760100008C
:1033700077010000790100007B0100007C01000062
:103380007E01000080010000810100008301000037
:103390008501000086010000880100008A0100000C
:1033A0008B0100008D0100008E01000090010000E3
:1033B00092010000930100009501000097010000B8
:1033C000980100009A0100009C0100009D0100008E
:1033D0009F010000A0010000A2010000A401000064
:1033E000A5010000A7010000A9010000AA0100003A
:1033F000AC010000AE010000AF010000B10100000F
:10340000B2010000B4010000B6010000B7010000E5
:10341000B9010000BA010000BC010000BE010000BB
:10342000BF010000C1010000C2010000C401000092
:10343000C6010000C7010000C9010000CA01000068
:10344000CC010000CE010000CF010000D10100003E
:10345000D2010000D4010000D6010000D701000015
:10346000D9010000DA010000DC010000DE010000EB
:10347000DF010000E1010000E2010000E4010000C2
:10348000E5010000E7010000E9010000EA01000099
:10349000EC010000ED010000EF010000F001000070
:1034A000F2010000F4010000F5010000F701000046
:1034B000F8010000FA010000FB010000FD0100001E
:1034C000FE010000000200000202000003020000F2
:1034D00005020000060200000802000009020000C8
:1034E0000B0200000C0200000E0200000F020000A0
:1034F0001102000012020000140200001502000078
:1035000017020000190200001A0200001C0200004D
:103510001D0200001F020000200200002202000025
:1035200023020000250200002602000028020000FD
:10353000290200002B0200002C0200002E020000D5
:103540002F020000310200003202000034020000AD
:103550003502000037020000380200003A02000085
:103560003B0200003D0200003E020000400200005D
:103570004102000043020000440200004502000036
:1035800047020000480200004A0200004B0200000F
:103590004D0200004E0200005002000051020000E7
:1035A00053020000540200005602000057020000BF
:1035B000580200005A0200005B0200005D02000099
:1035C0005E02000060020000610200006302000071
:1035D000640200006502000067020000680200004B
:1035E0006A0200006B0200006D0200006E02000023
:1035F0006F020000710200007202000074020000FD
:1036000075020000760200007802000079020000D6
:103610007B0200007C0200007D0200007F020000AF
:103620008002000082020000830200008402000089
:103630008602000087020000890200008A02000062
:103640008B0200008D0200008E0200008F0200003D
:103650009102000092020000940200009502000016
:103660009602000098020000990200009A020000F1
:103670009C0200009D0200009E020000A0020000CB
:10368000A1020000A2020000A4020000A5020000A6
:10369000A7020000A8020000A9020000AB0200007F
:1036A000AC020000AD020000AF020000B00200005A
:1036B000B1020000B2020000B4020000B502000036
:1036C000B6020000B8020000B9020000BA02000011
:1036D000BC020000BD020000BE020000C0020000EB
:1036E000C1020000C2020000C3020000C5020000C7
:1036F000C6020000C7020000C9020000CA020000A2
:10370000CB020000CC020000CE020000CF0200007D
:10371000D0020000D2020000D3020000D402000058
:10372000D5020000D7020000D8020000D902000034
:10373000DA020000DC020000DD020000DE02000010
:10374000DF020000E1020000E2020000E3020000EC
:10375000E4020000E6020000E7020000E8020000C8
:10376000E9020000EA020000EC020000ED020000A5
:10377000EE020000EF020000F1020000F202000081
:10378000F3020000F4020000F5020000F70200005E
:10379000F8020000F9020000FA020000FB0200003B
:1037A000FD020000FE020000FF0200000003000016
:1037B00001030000020300000403000005030000F1
:1037C00006030000070300000803000009030000CF
:1037D0000B0300000C0300000D0300000E030000AB
:1037E0000F03000010030000120300001303000089
:1037F0001403000015030000160300001703000067
:10380000180300001A0300001B0300001C03000043
:103810001D0300001E0300001F0300002003000022
:103820002103000022030000240300002503000000
:1038300026030000270300002803000029030000DE
:103840002A0300002B0300002C0300002D030000BE
:103850002F0300003003000031030000320300009A
:10386000330300003403000035030000360300007A
:103870003703000038030000390300003A0300005A
:103880003B0300003C0300003D0300003F03000039
:103890004003000041030000420300004303000016
:1038A00044030000450300004603000047030000F6
:1038B00048030000490300004A0300004B030000D6
:1038C0004C0300004D0300004E0300004F030000B6
:1038D0005003000051030000520300005303000096
:1038E0005403000055030000560300005703000076
:1038F00058030000590300005A0300005B03000056
:103900005C0300005D0300005E0300005F03000035
:103910006003000061030000620300006203000016
:1039200063030000640300006503000066030000F9
:103930006703000068030000690300006A030000D9
:103940006B0300006C0300006D0300006E030000B9
:103950006F0300007003000070030000710300009B
:10396000720300007303000074030000750300007D
:10397000760300007703000078030000790300005D
:10398000790300007A0300007B0300007C03000041
:103990007D0300007E0300007F0300008003000021
:1039A0008003000081030000820300008303000005
:1039B00084030000850300008603000086030000E6
:1039C0008703000088030000890300008A030000C9
:1039D0008B0300008B0300008C0300008D030000AC
:1039E0008E0300008F03000090030000900300008E
:1039F0009103000092030000930300009403000071
:103A00009403000095030000960300009703000054
:103A10009803000098030000990300009A03000037
:103A20009B0300009B0300009C0300009D0300001B
:103A30009E0300009F0300009F030000A0030000FE
:103A4000A1030000A2030000A2030000A3030000E2
:103A5000A4030000A5030000A5030000A6030000C6
:103A6000A7030000A7030000A8030000A9030000AB
:103A7000AA030000AA030000AB030000AC0300008F
:103A8000AC030000AD030000AE030000AF03000074
:103A9000AF030000B0030000B1030000B103000059
:103AA000B2030000B3030000B3030000B40300003E
:103AB000B5030000B5030000B6030000B703000023
:103AC000B7030000B8030000B9030000B903000009
:103AD000BA030000BB030000BB030000BC030000EE
:103AE000BD030000BD030000BE030000BF030000D3
:103AF000BF030000C0030000C0030000C1030000BA
:103B0000C2030000C2030000C3030000C30300009F
:103B1000C4030000C5030000C5030000C603000085
:103B2000C6030000C7030000C8030000C80300006C
:103B3000C9030000C9030000CA030000CB03000052
:103B4000CB030000CC030000CC030000CD03000039
:103B5000CD030000CE030000CE030000CF03000021
:103B6000D0030000D0030000D1030000D103000007
:103B7000D2030000D2030000D3030000D3030000EF
:103B8000D4030000D4030000D5030000D5030000D7
:103B9000D6030000D6030000D7030000D7030000BF
:103BA000D8030000D8030000D9030000D9030000A7
:103BB000DA030000DA030000DB030000DB0300008F
:103BC000DC030000DC030000DD030000DD03000077
:103BD000DE030000DE030000DE030000DF03000060
:103BE000DF030000E0030000E0030000E103000049
:103BF000E1030000E2030000E2030000E203000032
:103C0000E3030000E3030000E4030000E40300001A
:103C1000E5030000E5030000E5030000E603000003
:103C2000E6030000E7030000E7030000E7030000ED
:103C3000E8030000E8030000E8030000E9030000D7
:103C4000E9030000EA030000EA030000EA030000C1
:103C5000EB030000EB030000EB030000EC030000AB
:103C6000EC030000EC030000ED030000ED03000096
:103C7000EE030000EE030000EE030000EF0300007F
:103C8000EF030000EF030000EF030000F00300006B
:103C9000F0030000F0030000F1030000F103000056
:103CA000F1030000F2030000F2030000F203000041
:103CB000F3030000F3030000F3030000F30300002C
:103CC000F4030000F4030000F4030000F403000018
:103CD000F5030000F5030000F5030000F603000003
:103CE000F6030000F6030000F6030000F7030000EF
:103CF000F7030000F7030000F7030000F7030000DC
:103D0000F8030000F8030000F8030000F8030000C7
:103D1000F9030000F9030000F9030000F9030000B3
:103D2000F9030000FA030000FA030000FA030000A0
:103D3000FA030000FA030000FB030000FB0300008D
:103D4000FB030000FB030000FB030000FB0300007B
:103D5000FC030000FC030000FC030000FC03000067
:103D6000FC030000FC030000FD030000FD03000055
:103D7000FD030000FD030000FD030000FD03000043
:103D8000FD030000FE030000FE030000FE03000030
:103D9000FE030000FE030000FE030000FE0300001F
:103DA000FE030000FE030000FE030000FF0300000E
:103DB000FF030000FF030000FF030000FF030000FB
:103DC000FF030000FF030000FF030000FF030000EB
:103DD000FF030000FF030000FF030000FF030000DB
:103DE00000040000000400000004000000040000C3
:103DF00000040000000400000004000000040000B3
:103E000000040000000400000004000000040000A2
:103E10000004000000040000000400000004000092
:103E20000004000000040000000400000004000082
:103E30000004000000040000000400000004000072
:103E40000004000000040000000400000004000062
:103E50000004000000040000000400000004000052
:103E6000000400000004000000040000FF03000044
:103E7000FF030000FF030000FF030000FF0300003A
:103E8000FF030000FF030000FF030000FF0300002A
:103E9000FF030000FF030000FF030000FF0300001A
:103EA000FF030000FE030000FE030000FE0300000D
:103EB000FE030000FE030000FE030000FE030000FE
:103EC000FE030000FE030000FD030000FD030000F0
:103ED000FD030000FD030000FD030000FD030000E2
:103EE000FD030000FC030000FC030000FC030000D5
:103EF000FC030000FC030000FC030000FB030000C7
:103F0000FB030000FB030000FB030000FB030000B9
:103F1000FB030000FA030000FA030000FA030000AC
:103F2000FA030000FA030000F9030000F90300009F
:103F3000F9030000F9030000F9030000F803000092
:103F4000F8030000F8030000F8030000F703000086
:103F5000F7030000F7030000F7030000F703000079
:103F6000F6030000F6030000F6030000F60300006D
:103F7000F5030000F5030000F5030000F403000062
:103F8000F4030000F4030000F4030000F303000056
:103F9000F3030000F3030000F3030000F20300004A
:103FA000F2030000F2030000F1030000F10300003F
:103FB000F1030000F0030000F0030000F003000034
:103FC000F0030000EF030000EF030000EF03000028
:103FD000EE030000EE030000EE030000ED0300001E
:103FE000ED030000ED030000EC030000EC03000013
:103FF000EB030000EB030000EB030000EA0300000A
:10400000EA030000EA030000E9030000E9030000FE
:10401000E9030000E8030000E8030000E7030000F4
:10402000E7030000E7030000E6030000E6030000EA
:10403000E5030000E5030000E5030000E4030000E1
:10404000E4030000E3030000E3030000E2030000D8
:10405000E2030000E2030000E1030000E1030000CE
:10406000E0030000E0030000DF030000DF030000C6
:10407000DE030000DE030000DE030000DD030000BD
:10408000DD030000DC030000DC030000DB030000B4
:10409000DB030000DA030000DA030000D9030000AC
:1040A000D9030000D8030000D8030000D7030000A4
:1040B000D7030000D6030000D6030000D50300009C
:1040C000D5030000D4030000D4030000D303000094
:1040D000D3030000D2030000D2030000D10300008C
:1040E000D1030000D0030000D0030000CF03000084
:1040F000CE030000CE030000CD030000CD0300007E
:10410000CC030000CC030000CB030000CB03000075
:10411000CA030000C9030000C9030000C80300006F
:10412000C8030000C7030000C6030000C603000068
:10413000C5030000C5030000C4030000C303000062
:10414000C3030000C2030000C2030000C10300005B
:10415000C0030000C0030000BF030000BF03000055
:10416000BE030000BD030000BD030000BC0300004F
:10417000BB030000BB030000BA030000B90300004A
:10418000B9030000B8030000B7030000B703000044
:10419000B6030000B5030000B5030000B40300003F
:1041A000B3030000B3030000B2030000B10300003A
:1041B000B1030000B0030000AF030000AF03000034
:1041C000AE030000AD030000AD030000AC0300002F
:1041D000AB030000AA030000AA030000A90300002B
:1041E000A8030000A7030000A7030000A603000027
:1041F000A5030000A5030000A4030000A303000022
:10420000A2030000A2030000A1030000A00300001D
:104210009F0300009F0300009E0300009D03000019
:104220009C0300009C0300009B0300009A03000015
:104230009903000098030000980300009703000012
:10424000960300009503000094030000940300000F
:10425000930300009203000091030000900300000C
:10426000900300008F0300008E0300008D03000008
:104270008C0300008C0300008B0300008A03000005
:104280008903000088030000870300008603000004
:104290008603000085030000840300008303000000
:1042A00082030000810300008103000080030000FE
:1042B0007F0300007E0300007D0300007C030000FC
:1042C0007B0300007A0300007A03000079030000FA
:1042D00078030000770300007603000075030000F8
:1042E00074030000730300007203000071030000F8
:1042F00071030000700300006F0300006E030000F4
:104300006D0300006C0300006B0300006A030000F3
:1043100069030000680300006703000066030000F3
:1043200065030000640300006303000063030000F2
:104330006203000061030000600300005F030000EF
:104340005E0300005D0300005C0300005B030000EF
:104350005A030000590300005803000057030000EF
:1043600056030000550300005403000053030000EF
:104370005203000051030000500300004F030000EF
:104380004E0300004D0300004C0300004B030000EF
:104390004A030000490300004803000047030000EF
:1043A00046030000450300004403000043030000EF
:1043B0004203000041030000400300003F030000EF
:1043C0003E0300003C0300003B0300003A030000F2
:1043D00039030000380300003703000036030000F3
:1043E00035030000340300003303000032030000F3
:1043F00031030000300300002F0300002E030000F3
:104400002C0300002B0300002A03000029030000F6
:1044100028030000270300002603000025030000F6
:1044200024030000230300002103000020030000F8
:104430001F0300001E0300001D0300001C030000FA
:104440001B0300001A0300001803000017030000FC
:1044500016030000150300001403000013030000FE
:1044600012030000100300000F0300000E03000001
:104470000D0300000C0300000B0300000A03000002
:104480000803000007030000060300000503000006
:104490000403000003030000010300000003000008
:1044A000FF020000FE020000FD020000FB0200000F
:1044B000FA020000F9020000F8020000F702000012
:1044C000F5020000F4020000F3020000F202000016
:1044D000F1020000EF020000EE020000ED02000019
:1044E000EC020000EB020000E9020000E80200001C
:1044F000E7020000E6020000E4020000E302000020
:10450000E2020000E1020000DF020000DE02000023
:10451000DD020000DC020000DA020000D902000027
:10452000D8020000D7020000D5020000D40200002B
:10453000D3020000D2020000D0020000CF0200002F
:10454000CE020000CD020000CB020000CA02000033
:10455000C9020000C7020000C6020000C502000038
:10456000C4020000C2020000C1020000C00200003C
:10457000BE020000BD020000BC020000BA02000042
:10458000B9020000B8020000B6020000B502000047
:10459000B4020000B3020000B1020000B00200004B
:1045A000AF020000AD020000AC020000AB02000050
:1045B000A9020000A8020000A7020000A502000056
:1045C000A4020000A3020000A1020000A00200005B
:1045D0009F0200009D0200009C0200009A02000061
:1045E0009902000098020000960200009502000067
:1045F000940200009202000091020000900200006C
:104600008E0200008D0200008B0200008A02000072
:104610008902000087020000860200008402000078
:104620008302000082020000800200007F0200007E
:104630007E0200007C0200007B0200007902000084
:10464000780200007602000075020000740200008B
:1046500072020000710200006F0200006E02000092
:104660006D0200006B0200006A0200006802000098
:10467000670200006502000064020000630200009F
:1046800061020000600200005E0200005D020000A6
:104690005B0200005A0200005902000057020000AD
:1046A00056020000540200005302000051020000B4
:1046B000500200004E0200004D0200004B020000BC
:1046C0004A020000480200004702000046020000C3
:1046D00044020000430200004102000040020000CA
:1046E0003E0200003D0200003B0200003A020000D2
:1046F00038020000370200003502000034020000DA
:1047000032020000310200002F0200002E020000E1
:104710002C0200002B0200002902000028020000E9
:1047200026020000250200002302000022020000F1
:10473000200200001F0200001D0200001C020000F9
:104740001A02000019020000170200001602000001
:104750001402000013020000110200000F0200000A
:104760000E0200000C0200000B0200000902000013
:10477000080200000602000005020000030200001B
:104780000202000000020000FF010000FD01000025
:10479000FB010000FA010000F8010000F701000031
:1047A000F5010000F4010000F2010000F101000039
:1047B000EF010000ED010000EC010000EA01000043
:1047C000E9010000E7010000E6010000E40100004B
:1047D000E2010000E1010000DF010000DE01000055
:1047E000DC010000DA010000D9010000D70100005F
:1047F000D6010000D4010000D3010000D101000067
:10480000CF010000CE010000CC010000CB01000070
:10481000C9010000C7010000C6010000C40100007A
:10482000C3010000C1010000BF010000BE01000083
:10483000BC010000BB010000B9010000B70100008D
:10484000B6010000B4010000B2010000B101000097
:10485000AF010000AE010000AC010000AA010000A1
:10486000A9010000A7010000A5010000A4010000AB
:10487000A2010000A10100009F0100009D010000B5
:104880009C0100009A0100009801000097010000BF
:1048900095010000930100009201000090010000CA
:1048A0008F0100008D0100008B0100008A010000D3
:1048B00088010000860100008501000083010000DE
:1048C00081010000800100007E0100007C010000E9
:1048D0007B010000790100007701000076010000F3
:1048E0007401000072010000710100006F010000FE
:1048F0006D0100006C0100006A0100006801000009
:104900006701000065010000630100006201000012
:10491000600100005E0100005D0100005B0100001D
:104920005901000058010000560100005401000028
:1049300053010000510100004F0100004D01000033
:104940004C0100004A01000048010000470100003E
:104950004501000043010000420100004001000049
:104960003E0100003D0100003B0100003901000054
:104970003701000036010000340100003201000060
:10498000310100002F0100002D0100002B0100006B
:104990002A01000028010000260100002501000076
:1049A00023010000210100001F0100001E01000082
:1049B0001C0100001A01000019010000170100008D
:1049C0001501000013010000120100001001000099
:1049D0000E0100000D0100000B01000009010000A4
:1049E00007010000060100000401000002010000B0
:1049F00000010000FF000000FD000000FB000000BF
:104A0000FA000000F8000000F6000000F4000000CA
:104A1000F3000000F1000000EF000000ED000000D6
:104A2000EC000000EA000000E8000000E6000000E2
:104A3000E5000000E3000000E1000000DF000000EE
:104A4000DE000000DC000000DA000000D8000000FA
:104A5000D7000000D5000000D3000000D100000006
:104A6000D0000000CE000000CC000000CA00000012
:104A7000C9000000C7000000C5000000C30000001E
:104A8000C2000000C0000000BE000000BC0000002A
:104A9000BB000000B9000000B7000000B500000036
:104AA000B4000000B2000000B0000000AE00000042
:104AB000AD000000AB000000A9000000A70000004E
:104AC000A6000000A4000000A2000000A00000005A
:104AD0009F0000009D0000009B0000009900000066
:104AE0009700000096000000940000009200000073
:104AF000900000008F0000008D0000008B0000007F
:104B0000890000008800000086000000840000008A
:104B100082000000800000007F0000007D00000097
:104B20007B000000790000007800000076000000A3
:104B30007400000072000000700000006F000000B0
:104B40006D0000006B0000006900000068000000BC
:104B500066000000640000006200000060000000C9
:104B60005F0000005D0000005B00000059000000D5
:104B700058000000560000005400000052000000E1
:104B8000500000004F0000004D0000004B000000EE
:104B900049000000480000004600000044000000FA
:104BA00042000000400000003F0000003D00000007
:104BB0003B00000039000000370000003600000014
:104BC0003400000032000000300000002F00000020
:104BD0002D0000002B00000029000000270000002D
:104BE0002600000024000000220000002000000039
:104BF0001E0000001D0000001B0000001900000046
:104C00001700000016000000140000001200000051
:104C1000100000000E0000000D0000000B0000005E
:104C2000090000000700000005000000040000006B
:104C30000200000000000000FEFFFFFFFDFFFFFF7D
:104C4000FBFFFFFFF9FFFFFFF7FFFFFFF5FFFFFF90
:104C5000F4FFFFFFF2FFFFFFF0FFFFFFEEFFFFFF9C
:104C6000ECFFFFFFEBFFFFFFE9FFFFFFE7FFFFFFA9
:104C7000E5FFFFFFE4FFFFFFE2FFFFFFE0FFFFFFB5
:104C8000DEFFFFFFDCFFFFFFDBFFFFFFD9FFFFFFC2
:104C9000D7FFFFFFD5FFFFFFD3FFFFFFD2FFFFFFCF
:104CA000D0FFFFFFCEFFFFFFCCFFFFFFCBFFFFFFDB
:104CB000C9FFFFFFC7FFFFFFC5FFFFFFC3FFFFFFE8
:104CC000C2FFFFFFC0FFFFFFBEFFFFFFBCFFFFFFF4
:104CD000BAFFFFFFB9FFFFFFB7FFFFFFB5FFFFFF01
:104CE000B3FFFFFFB2FFFFFFB0FFFFFFAEFFFFFF0D
:104CF000ACFFFFFFAAFFFFFFA9FFFFFFA7FFFFFF1A
:104D0000A5FFFFFFA3FFFFFFA2FFFFFFA0FFFFFF25
:104D10009EFFFFFF9CFFFFFF9AFFFFFF99FFFFFF32
:104D200097FFFFFF95FFFFFF93FFFFFF92FFFFFF3E
:104D300090FFFFFF8EFFFFFF8CFFFFFF8AFFFFFF4B
:104D400089FFFFFF87FFFFFF85FFFFFF83FFFFFF57
:104D500082FFFFFF80FFFFFF7EFFFFFF7CFFFFFF63
:104D60007AFFFFFF79FFFFFF77FFFFFF75FFFFFF70
:104D700073FFFFFF72FFFFFF70FFFFFF6EFFFFFF7C
:104D80006CFFFFFF6BFFFFFF69FFFFFF67FFFFFF88
:104D900065FFFFFF63FFFFFF62FFFFFF60FFFFFF95
:104DA0005EFFFFFF5CFFFFFF5BFFFFFF59FFFFFFA1
:104DB00057FFFFFF55FFFFFF54FFFFFF52FFFFFFAD
:104DC00050FFFFFF4EFFFFFF4DFFFFFF4BFFFFFFB9
:104DD00049FFFFFF47FFFFFF45FFFFFF44FFFFFFC6
:104DE00042FFFFFF40FFFFFF3EFFFFFF3DFFFFFFD2
:104DF0003BFFFFFF39FFFFFF37FFFFFF36FFFFFFDE
:104E000034FFFFFF32FFFFFF30FFFFFF2FFFFFFFE9
:104E10002DFFFFFF2BFFFFFF29FFFFFF28FFFFFFF5
:104E200026FFFFFF24FFFFFF22FFFFFF21FFFFFF01
:104E30001FFFFFFF1DFFFFFF1BFFFFFF1AFFFFFF0D
:104E400018FFFFFF16FFFFFF15FFFFFF13FFFFFF18
:104E500011FFFFFF0FFFFFFF0EFFFFFF0CFFFFFF24
:104E60000AFFFFFF08FFFFFF07FFFFFF05FFFFFF30
:104E700003FFFFFF01FFFFFF00FFFFFFFEFEFFFF3D
:104E8000FCFEFFFFFBFEFFFFF9FEFFFFF7FEFFFF4B
:104E9000F5FEFFFFF4FEFFFFF2FEFFFFF0FEFFFF57
:104EA000EEFEFFFFEDFEFFFFEBFEFFFFE9FEFFFF63
:104EB000E8FEFFFFE6FEFFFFE4FEFFFFE2FEFFFF6E
:104EC000E1FEFFFFDFFEFFFFDDFEFFFFDCFEFFFF79
:104ED000DAFEFFFFD8FEFFFFD6FEFFFFD5FEFFFF85
:104EE000D3FEFFFFD1FEFFFFD0FEFFFFCEFEFFFF90
:104EF000CCFEFFFFCAFEFFFFC9FEFFFFC7FEFFFF9C
:104F0000C5FEFFFFC4FEFFFFC2FEFFFFC0FEFFFFA6
:104F1000BFFEFFFFBDFEFFFFBBFEFFFFB9FEFFFFB1
:104F2000B8FEFFFFB6FEFFFFB4FEFFFFB3FEFFFFBC
:104F3000B1FEFFFFAFFEFFFFAEFEFFFFACFEFFFFC7
:104F4000AAFEFFFFA9FEFFFFA7FEFFFFA5FEFFFFD2
:104F5000A4FEFFFFA2FEFFFFA0FEFFFF9FFEFFFFDC
:104F60009DFEFFFF9BFEFFFF99FEFFFF98FEFFFFE8
:104F700096FEFFFF94FEFFFF93FEFFFF91FEFFFFF3
:104F80008FFEFFFF8EFEFFFF8CFEFFFF8AFEFFFFFE
:104F900089FEFFFF87FEFFFF85FEFFFF84FEFFFF08
:104FA00082FEFFFF81FEFFFF7FFEFFFF7DFEFFFF12
:104FB0007CFEFFFF7AFEFFFF78FEFFFF77FEFFFF1C
:104FC00075FEFFFF73FEFFFF72FEFFFF70FEFFFF27
:104FD0006EFEFFFF6DFEFFFF6BFEFFFF69FEFFFF32
:104FE00068FEFFFF66FEFFFF65FEFFFF63FEFFFF3B
:104FF00061FEFFFF60FEFFFF5EFEFFFF5CFEFFFF46
:105000005BFEFFFF59FEFFFF57FEFFFF56FEFFFF4F
:1050100054FEFFFF53FEFFFF51FEFFFF4FFEFFFF59
:105020004EFEFFFF4CFEFFFF4AFEFFFF49FEFFFF63
:1050300047FEFFFF46FEFFFF44FEFFFF42FEFFFF6D
:1050400041FEFFFF3FFEFFFF3EFEFFFF3CFEFFFF76
:105050003AFEFFFF39FEFFFF37FEFFFF36FEFFFF80
:1050600034FEFFFF32FEFFFF31FEFFFF2FFEFFFF8A
:105070002EFEFFFF2CFEFFFF2AFEFFFF29FEFFFF93
:1050800027FEFFFF26FEFFFF24FEFFFF23FEFFFF9C
:1050900021FEFFFF1FFEFFFF1EFEFFFF1CFEFFFFA6
:1050A0001BFEFFFF19FEFFFF17FEFFFF16FEFFFFAF
:1050B00014FEFFFF13FEFFFF11FEFFFF10FEFFFFB8
:1050C0000EFEFFFF0DFEFFFF0BFEFFFF09FEFFFFC1
:1050D00008FEFFFF06FEFFFF05FEFFFF03FEFFFFCA
:1050E00002FEFFFF00FEFFFFFFFDFFFFFDFDFFFFD4
:1050F000FBFDFFFFFAFDFFFFF8FDFFFFF7FDFFFFE0
:10510000F5FDFFFFF4FDFFFFF2FDFFFFF1FDFFFFE7
:10511000EFFDFFFFEEFDFFFFECFDFFFFEBFDFFFFEF
:10512000E9FDFFFFE8FDFFFFE6FDFFFFE4FDFFFFF8
:10513000E3FDFFFFE1FDFFFFE0FDFFFFDEFDFFFF01
:10514000DDFDFFFFDBFDFFFFDAFDFFFFD8FDFFFF09
:10515000D7FDFFFFD5FDFFFFD4FDFFFFD2FDFFFF11
:10516000D1FDFFFFCFFDFFFFCEFDFFFFCCFDFFFF19
:10517000CBFDFFFFC9FDFFFFC8FDFFFFC6FDFFFF21
:10518000C5FDFFFFC3FDFFFFC2FDFFFFC1FDFFFF28
:10519000BFFDFFFFBEFDFFFFBCFDFFFFBBFDFFFF2F
:1051A000B9FDFFFFB8FDFFFFB6FDFFFFB5FDFFFF37
:1051B000B3FDFFFFB2FDFFFFB0FDFFFFAFFDFFFF3F
:1051C000ADFDFFFFACFDFFFFABFDFFFFA9FDFFFF46
:1051D000A8FDFFFFA6FDFFFFA5FDFFFFA3FDFFFF4D
:1051E000A2FDFFFFA0FDFFFF9FFDFFFF9EFDFFFF54
:1051F0009CFDFFFF9BFDFFFF99FDFFFF98FDFFFF5B
:1052000096FDFFFF95FDFFFF94FDFFFF92FDFFFF61
:1052100091FDFFFF8FFDFFFF8EFDFFFF8CFDFFFF68
:105220008BFDFFFF8AFDFFFF88FDFFFF87FDFFFF6E
:1052300085FDFFFF84FDFFFF83FDFFFF81FDFFFF75
:1052400080FDFFFF7EFDFFFF7DFDFFFF7CFDFFFF7B
:105250007AFDFFFF79FDFFFF78FDFFFF76FDFFFF81
:1052600075FDFFFF73FDFFFF72FDFFFF71FDFFFF87
:105270006FFDFFFF6EFDFFFF6DFDFFFF6BFDFFFF8D
:105280006AFDFFFF68FDFFFF67FDFFFF66FDFFFF93
:1052900064FDFFFF63FDFFFF62FDFFFF60FDFFFF99
:1052A0005FFDFFFF5EFDFFFF5CFDFFFF5BFDFFFF9E
:1052B0005AFDFFFF58FDFFFF57FDFFFF56FDFFFFA3
:1052C00054FDFFFF53FDFFFF52FDFFFF50FDFFFFA9
:1052D0004FFDFFFF4EFDFFFF4CFDFFFF4BFDFFFFAE
:1052E0004AFDFFFF48FDFFFF47FDFFFF46FDFFFFB3
:1052F00044FDFFFF43FDFFFF42FDFFFF41FDFFFFB8
:105300003FFDFFFF3EFDFFFF3DFDFFFF3BFDFFFFBC
:105310003AFDFFFF39FDFFFF37FDFFFF36FDFFFFC1
:1053200035FDFFFF34FDFFFF32FDFFFF31FDFFFFC5
:1053300030FDFFFF2FFDFFFF2DFDFFFF2CFDFFFFC9
:105340002BFDFFFF29FDFFFF28FDFFFF27FDFFFFCE
:1053500026FDFFFF24FDFFFF23FDFFFF22FDFFFFD2
:1053600021FDFFFF1FFDFFFF1EFDFFFF1DFDFFFFD6
:105370001CFDFFFF1BFDFFFF19FDFFFF18FDFFFFD9
:1053800017FDFFFF16FDFFFF14FDFFFF13FDFFFFDD
:1053900012FDFFFF11FDFFFF10FDFFFF0EFDFFFFE0
:1053A0000DFDFFFF0CFDFFFF0BFDFFFF09FDFFFFE4
:1053B00008FDFFFF07FDFFFF06FDFFFF05FDFFFFE7
:1053C00004FDFFFF02FDFFFF01FDFFFF00FDFFFFEA
:1053D000FFFCFFFFFEFCFFFFFCFCFFFFFBFCFFFFF1
:1053E000FAFCFFFFF9FCFFFFF8FCFFFFF7FCFFFFF3
:1053F000F5FCFFFFF4FCFFFFF3FCFFFFF2FCFFFFF7
:10540000F1FCFFFFF0FCFFFFEFFCFFFFEDFCFFFFF7
:10541000ECFCFFFFEBFCFFFFEAFCFFFFE9FCFFFFFA
:10542000E8FCFFFFE7FCFFFFE5FCFFFFE4FCFFFFFC
:10543000E3FCFFFFE2FCFFFFE1FCFFFFE0FCFFFFFE
:10544000DFFCFFFFDEFCFFFFDCFCFFFFDBFCFFFF00
:10545000DAFCFFFFD9FCFFFFD8FCFFFFD7FCFFFF02
:10546000D6FCFFFFD5FCFFFFD4FCFFFFD3FCFFFF02
:10547000D2FCFFFFD0FCFFFFCFFCFFFFCEFCFFFF05
:10548000CDFCFFFFCCFCFFFFCBFCFFFFCAFCFFFF06
:10549000C9FCFFFFC8FCFFFFC7FCFFFFC6FCFFFF06
:1054A000C5FCFFFFC4FCFFFFC3FCFFFFC2FCFFFF06
:1054B000C0FCFFFFBFFCFFFFBEFCFFFFBDFCFFFF0A
:1054C000BCFCFFFFBBFCFFFFBAFCFFFFB9FCFFFF0A
:1054D000B8FCFFFFB7FCFFFFB6FCFFFFB5FCFFFF0A
:1054E000B4FCFFFFB3FCFFFFB2FCFFFFB1FCFFFF0A
:1054F000B0FCFFFFAFFCFFFFAEFCFFFFADFCFFFF0A
:10550000ACFCFFFFABFCFFFFAAFCFFFFA9FCFFFF09
:10551000A8FCFFFFA7FCFFFFA6FCFFFFA5FCFFFF09
:10552000A4FCFFFFA3FCFFFFA2FCFFFFA1FCFFFF09
:10553000A0FCFFFF9FFCFFFF9FFCFFFF9EFCFFFF07
:105540009DFCFFFF9CFCFFFF9BFCFFFF9AFCFFFF05
:1055500099FCFFFF98FCFFFF97FCFFFF96FCFFFF05
:1055600095FCFFFF94FCFFFF93FCFFFF92FCFFFF05
:1055700091FCFFFF90FCFFFF90FCFFFF8FFCFFFF03
:105580008EFCFFFF8DFCFFFF8CFCFFFF8BFCFFFF01
:105590008AFCFFFF89FCFFFF88FCFFFF87FCFFFF01
:1055A00087FCFFFF86FCFFFF85FCFFFF84FCFFFFFD
:1055B00083FCFFFF82FCFFFF81FCFFFF80FCFFFFFD
:1055C00080FCFFFF7FFCFFFF7EFCFFFF7DFCFFFFF9
:1055D0007CFCFFFF7BFCFFFF7AFCFFFF7AFCFFFFF8
:1055E00079FCFFFF78FCFFFF77FCFFFF76FCFFFFF5
:1055F00075FCFFFF75FCFFFF74FCFFFF73FCFFFFF2
:1056000072FCFFFF71FCFFFF70FCFFFF70FCFFFFEF
:105610006FFCFFFF6EFCFFFF6DFCFFFF6CFCFFFFEC
:105620006CFCFFFF6BFCFFFF6AFCFFFF69FCFFFFE8
:1056300068FCFFFF68FCFFFF67FCFFFF66FCFFFFE5
:1056400065FCFFFF65FCFFFF64FCFFFF63FCFFFFE1
:1056500062FCFFFF62FCFFFF61FCFFFF60FCFFFFDD
:105660005FFCFFFF5EFCFFFF5EFCFFFF5DFCFFFFDA
:105670005CFCFFFF5CFCFFFF5BFCFFFF5AFCFFFFD5
:1056800059FCFFFF59FCFFFF58FCFFFF57FCFFFFD1
:1056900056FCFFFF56FCFFFF55FCFFFF54FCFFFFCD
:1056A00054FCFFFF53FCFFFF52FCFFFF51FCFFFFC8
:1056B00051FCFFFF50FCFFFF4FFCFFFF4FFCFFFFC3
:1056C0004EFCFFFF4DFCFFFF4DFCFFFF4CFCFFFFBE
:1056D0004BFCFFFF4BFCFFFF4AFCFFFF49FCFFFFB9
:1056E00049FCFFFF48FCFFFF47FCFFFF47FCFFFFB3
:1056F00046FCFFFF45FCFFFF45FCFFFF44FCFFFFAE
:1057000043FCFFFF43FCFFFF42FCFFFF42FCFFFFA7
:1057100041FCFFFF40FCFFFF40FCFFFF3FFCFFFFA1
:105720003EFCFFFF3EFCFFFF3DFCFFFF3DFCFFFF9B
:105730003CFCFFFF3BFCFFFF3BFCFFFF3AFCFFFF95
:105740003AFCFFFF39FCFFFF38FCFFFF38FCFFFF8E
:1057500037FCFFFF37FCFFFF36FCFFFF36FCFFFF87
:1057600035FCFFFF34FCFFFF34FCFFFF33FCFFFF81
:1057700033FCFFFF32FCFFFF32FCFFFF31FCFFFF79
:1057800031FCFFFF30FCFFFF2FFCFFFF2FFCFFFF72
:105790002EFCFFFF2EFCFFFF2DFCFFFF2DFCFFFF6B
:1057A0002CFCFFFF2CFCFFFF2BFCFFFF2BFCFFFF63
:1057B0002AFCFFFF2AFCFFFF29FCFFFF29FCFFFF5B
:1057C00028FCFFFF28FCFFFF27FCFFFF27FCFFFF53
:1057D00026FCFFFF26FCFFFF25FCFFFF25FCFFFF4B
:1057E00024FCFFFF24FCFFFF23FCFFFF23FCFFFF43
:1057F00022FCFFFF22FCFFFF22FCFFFF21FCFFFF3A
:1058000021FCFFFF20FCFFFF20FCFFFF1FFCFFFF30
:105810001FFCFFFF1EFCFFFF1EFCFFFF1EFCFFFF27
:105820001DFCFFFF1DFCFFFF1CFCFFFF1CFCFFFF1E
:105830001BFCFFFF1BFCFFFF1BFCFFFF1AFCFFFF15
:105840001AFCFFFF19FCFFFF19FCFFFF19FCFFFF0B
:1058500018FCFFFF18FCFFFF18FCFFFF17FCFFFF01
:1058600017FCFFFF16FCFFFF16FCFFFF16FCFFFFF7
:1058700015FCFFFF15FCFFFF15FCFFFF14FCFFFFED
:1058800014FCFFFF14FCFFFF13FCFFFF13FCFFFFE2
:1058900013FCFFFF12FCFFFF12FCFFFF11FCFFFFD8
:1058A00011FCFFFF11FCFFFF11FCFFFF10FCFFFFCD
:1058B00010FCFFFF10FCFFFF0FFCFFFF0FFCFFFFC2
:1058C0000FFCFFFF0EFCFFFF0EFCFFFF0EFCFFFFB7
:1058D0000DFCFFFF0DFCFFFF0DFCFFFF0DFCFFFFAC
:1058E0000CFCFFFF0CFCFFFF0CFCFFFF0CFCFFFFA0
:1058F0000BFCFFFF0BFCFFFF0BFCFFFF0AFCFFFF95
:105900000AFCFFFF0AFCFFFF0AFCFFFF09FCFFFF88
:1059100009FCFFFF09FCFFFF09FCFFFF09FCFFFF7B
:1059200008FCFFFF08FCFFFF08FCFFFF08FCFFFF6F
:1059300007FCFFFF07FCFFFF07FCFFFF07FCFFFF63
:1059400007FCFFFF06FCFFFF06FCFFFF06FCFFFF56
:1059500006FCFFFF06FCFFFF05FCFFFF05FCFFFF49
:1059600005FCFFFF05FCFFFF05FCFFFF05FCFFFF3B
:1059700004FCFFFF04FCFFFF04FCFFFF04FCFFFF2F
:1059800004FCFFFF04FCFFFF03FCFFFF03FCFFFF21
:1059900003FCFFFF03FCFFFF03FCFFFF03FCFFFF13
:1059A00003FCFFFF03FCFFFF02FCFFFF02FCFFFF05
:1059B00002FCFFFF02FCFFFF02FCFFFF02FCFFFFF7
:1059C00002FCFFFF02FCFFFF02FCFFFF01FCFFFFE8
:1059D00001FCFFFF01FCFFFF01FCFFFF01FCFFFFDB
:1059E00001FCFFFF01FCFFFF01FCFFFF01FCFFFFCB
:1059F00001FCFFFF01FCFFFF01FCFFFF01FCFFFFBB
:105A000000FCFFFF00FCFFFF00FCFFFF00FCFFFFAE
:105A100000FCFFFF00FCFFFF00FCFFFF00FCFFFF9E
:105A200000FCFFFF00FCFFFF00FCFFFF00FCFFFF8E
:105A300000FCFFFF00FCFFFF00FCFFFF00FCFFFF7E
:105A400000FCFFFF00FCFFFF00FCFFFF00FCFFFF6E
:105A500000FCFFFF00FCFFFF00FCFFFF00FCFFFF5E
:105A600000FCFFFF00FCFFFF00FCFFFF00FCFFFF4E
:105A700000FCFFFF00FCFFFF00FCFFFF00FCFFFF3E
:105A800000FCFFFF00FCFFFF00FCFFFF01FCFFFF2D
:105A900001FCFFFF01FCFFFF01FCFFFF01FCFFFF1A
:105AA00001FCFFFF01FCFFFF01FCFFFF01FCFFFF0A
:105AB00001FCFFFF01FCFFFF01FCFFFF01FCFFFFFA
:105AC00001FCFFFF02FCFFFF02FCFFFF02FCFFFFE7
:105AD00002FCFFFF02FCFFFF02FCFFFF02FCFFFFD6
